{
  "contractName": "Company",
  "abi": [
    {
      "inputs": [],
      "stateMutability": "nonpayable",
      "type": "constructor"
    },
    {
      "anonymous": false,
      "inputs": [
        {
          "indexed": false,
          "internalType": "uint256",
          "name": "companyId",
          "type": "uint256"
        },
        {
          "indexed": false,
          "internalType": "string",
          "name": "name",
          "type": "string"
        },
        {
          "indexed": false,
          "internalType": "address",
          "name": "sender",
          "type": "address"
        }
      ],
      "name": "Dissolved",
      "type": "event"
    },
    {
      "anonymous": false,
      "inputs": [
        {
          "indexed": false,
          "internalType": "uint256",
          "name": "companyId",
          "type": "uint256"
        },
        {
          "indexed": false,
          "internalType": "string",
          "name": "name",
          "type": "string"
        },
        {
          "indexed": false,
          "internalType": "uint256",
          "name": "foundingcapitalgoal",
          "type": "uint256"
        },
        {
          "indexed": false,
          "internalType": "uint256",
          "name": "memberAmount",
          "type": "uint256"
        }
      ],
      "name": "Founded",
      "type": "event"
    },
    {
      "anonymous": false,
      "inputs": [
        {
          "indexed": false,
          "internalType": "uint256",
          "name": "companyId",
          "type": "uint256"
        },
        {
          "indexed": false,
          "internalType": "string",
          "name": "name",
          "type": "string"
        },
        {
          "indexed": false,
          "internalType": "address",
          "name": "sender",
          "type": "address"
        }
      ],
      "name": "Left",
      "type": "event"
    },
    {
      "anonymous": false,
      "inputs": [
        {
          "indexed": false,
          "internalType": "uint256",
          "name": "value",
          "type": "uint256"
        },
        {
          "indexed": false,
          "internalType": "address",
          "name": "sender",
          "type": "address"
        },
        {
          "indexed": false,
          "internalType": "uint256",
          "name": "companyId",
          "type": "uint256"
        }
      ],
      "name": "Received",
      "type": "event"
    },
    {
      "inputs": [
        {
          "internalType": "uint256",
          "name": "",
          "type": "uint256"
        }
      ],
      "name": "company",
      "outputs": [
        {
          "internalType": "string",
          "name": "",
          "type": "string"
        }
      ],
      "stateMutability": "view",
      "type": "function"
    },
    {
      "inputs": [],
      "name": "governance",
      "outputs": [
        {
          "internalType": "address",
          "name": "",
          "type": "address"
        }
      ],
      "stateMutability": "view",
      "type": "function"
    },
    {
      "inputs": [],
      "name": "name",
      "outputs": [
        {
          "internalType": "string",
          "name": "",
          "type": "string"
        }
      ],
      "stateMutability": "view",
      "type": "function"
    },
    {
      "inputs": [
        {
          "internalType": "string",
          "name": "_name",
          "type": "string"
        },
        {
          "internalType": "uint256",
          "name": "_foundingcapitalgoal",
          "type": "uint256"
        },
        {
          "internalType": "uint256",
          "name": "_memberAmount",
          "type": "uint256"
        }
      ],
      "name": "found",
      "outputs": [
        {
          "internalType": "uint256",
          "name": "",
          "type": "uint256"
        }
      ],
      "stateMutability": "nonpayable",
      "type": "function"
    },
    {
      "inputs": [
        {
          "internalType": "uint256",
          "name": "companyId",
          "type": "uint256"
        }
      ],
      "name": "payShare",
      "outputs": [],
      "stateMutability": "payable",
      "type": "function"
    },
    {
      "inputs": [
        {
          "internalType": "uint256",
          "name": "companyId",
          "type": "uint256"
        }
      ],
      "name": "leaveCompany",
      "outputs": [],
      "stateMutability": "nonpayable",
      "type": "function"
    },
    {
      "inputs": [
        {
          "internalType": "uint256",
          "name": "companyId",
          "type": "uint256"
        }
      ],
      "name": "dissolveCompany",
      "outputs": [],
      "stateMutability": "nonpayable",
      "type": "function"
    },
    {
      "inputs": [
        {
          "internalType": "uint256",
          "name": "companyId",
          "type": "uint256"
        }
      ],
      "name": "getMembersById",
      "outputs": [
        {
          "internalType": "address[]",
          "name": "",
          "type": "address[]"
        }
      ],
      "stateMutability": "view",
      "type": "function"
    },
    {
      "inputs": [],
      "name": "getAllCompanies",
      "outputs": [
        {
          "internalType": "string[]",
          "name": "",
          "type": "string[]"
        }
      ],
      "stateMutability": "view",
      "type": "function"
    },
    {
      "inputs": [
        {
          "internalType": "uint256",
          "name": "companyId",
          "type": "uint256"
        }
      ],
      "name": "getCompanyById",
      "outputs": [
        {
          "internalType": "string",
          "name": "",
          "type": "string"
        }
      ],
      "stateMutability": "view",
      "type": "function"
    },
    {
      "inputs": [
        {
          "internalType": "uint256",
          "name": "companyId",
          "type": "uint256"
        }
      ],
      "name": "getCompanyBalanceById",
      "outputs": [
        {
          "internalType": "uint256",
          "name": "",
          "type": "uint256"
        }
      ],
      "stateMutability": "view",
      "type": "function"
    }
  ],
  "bytecode": "0x60c0604052601660808190527f466f756e6420796f7572206f776e20636f6d70616e790000000000000000000060a090815262000040916002919062000067565b503480156200004e57600080fd5b50600080546001600160a01b031916331790556200014a565b82805462000075906200010d565b90600052602060002090601f016020900481019282620000995760008555620000e4565b82601f10620000b457805160ff1916838001178555620000e4565b82800160010185558215620000e4579182015b82811115620000e4578251825591602001919060010190620000c7565b50620000f2929150620000f6565b5090565b5b80821115620000f25760008155600101620000f7565b600181811c908216806200012257607f821691505b602082108114156200014457634e487b7160e01b600052602260045260246000fd5b50919050565b611583806200015a6000396000f3fe60806040526004361061009c5760003560e01c8063751ac34911610064578063751ac34914610174578063804e29ad14610196578063b79c8009146101b6578063c97320a7146101d6578063cce2ece0146101e9578063eacebba31461021657600080fd5b806306fdde03146100a157806334e2ad59146100cc578063408bf4c3146100ec5780635aa6e6751461010e578063624159b814610146575b600080fd5b3480156100ad57600080fd5b506100b6610236565b6040516100c39190611137565b60405180910390f35b3480156100d857600080fd5b506100b66100e736600461114a565b6102c4565b3480156100f857600080fd5b50610101610474565b6040516100c39190611163565b34801561011a57600080fd5b5060005461012e906001600160a01b031681565b6040516001600160a01b0390911681526020016100c3565b34801561015257600080fd5b5061016661016136600461114a565b61054d565b6040519081526020016100c3565b34801561018057600080fd5b5061019461018f36600461114a565b61066b565b005b3480156101a257600080fd5b506101946101b136600461114a565b6108ab565b3480156101c257600080fd5b506101666101d13660046111db565b610ab9565b6101946101e436600461114a565b610cbf565b3480156101f557600080fd5b5061020961020436600461114a565b610dbe565b6040516100c3919061129f565b34801561022257600080fd5b506100b661023136600461114a565b610e2a565b60028054610243906112ec565b80601f016020809104026020016040519081016040528092919081815260200182805461026f906112ec565b80156102bc5780601f10610291576101008083540402835291602001916102bc565b820191906000526020600020905b81548152906001019060200180831161029f57829003601f168201915b505050505081565b6000818152600960205260408120805460609291906102e2906112ec565b80601f016020809104026020016040519081016040528092919081815260200182805461030e906112ec565b801561035b5780601f106103305761010080835404028352916020019161035b565b820191906000526020600020905b81548152906001019060200180831161033e57829003601f168201915b50505050509050600a816040516103729190611327565b9081526040519081900360200190205460ff1615156001146103d55760405162461bcd60e51b81526020600482015260176024820152761b9bc818dbdb5c185b9e481dda5d1a081d1a1a5cc81251604a1b60448201526064015b60405180910390fd5b600083815260096020526040902080546103ee906112ec565b80601f016020809104026020016040519081016040528092919081815260200182805461041a906112ec565b80156104675780601f1061043c57610100808354040283529160200191610467565b820191906000526020600020905b81548152906001019060200180831161044a57829003601f168201915b5050505050915050919050565b60606001805480602002602001604051908101604052809291908181526020016000905b828210156105445783829060005260206000200180546104b7906112ec565b80601f01602080910402602001604051908101604052809291908181526020018280546104e3906112ec565b80156105305780601f1061050557610100808354040283529160200191610530565b820191906000526020600020905b81548152906001019060200180831161051357829003601f168201915b505050505081526020019060010190610498565b50505050905090565b60008181526009602052604081208054829190610569906112ec565b80601f0160208091040260200160405190810160405280929190818152602001828054610595906112ec565b80156105e25780601f106105b7576101008083540402835291602001916105e2565b820191906000526020600020905b8154815290600101906020018083116105c557829003601f168201915b50505050509050600a816040516105f99190611327565b9081526040519081900360200190205460ff1615156001146106575760405162461bcd60e51b81526020600482015260176024820152761b9bc818dbdb5c185b9e481dda5d1a081d1a1a5cc81251604a1b60448201526064016103cc565b50506000908152600c602052604090205490565b60008181526008602090815260408083203384529091529020805460ff191660011790556001600a600960008481526020019081526020016000206040516106b39190611343565b908152604051908190036020019020805482151560ff199091161790556107155760405162461bcd60e51b815260206004820152601660248201527518dbdb5c185b9e48191bd95cc81b9bdd08195e1a5cdd60521b60448201526064016103cc565b6000818152600960205260408120805461072e906112ec565b80601f016020809104026020016040519081016040528092919081815260200182805461075a906112ec565b80156107a75780601f1061077c576101008083540402835291602001916107a7565b820191906000526020600020905b81548152906001019060200180831161078a57829003601f168201915b505033600090815260036020819052604090912001805460ff19169055509192506107d0915050565b600082815260056020908152604080832054600690925290912054141561086c5760005b60008381526005602052604090205481101561086a57600083815260046020526040812080548390811061082a5761082a6113e6565b60009182526020822001546001600160a01b0316915061084a8286610e55565b90506108568282610eed565b82610860816113cb565b93505050506107f4565b505b7f599eb4c8c87d186305bd4a8dbcc9eddc357ee9e829bbc2e0d2f97aac05c84aba82823360405161089f939291906113fc565b60405180910390a15050565b60008181526008602090815260408083203384529091529020805460ff1916600117905560008181526004602052604090205460011061094b5760405162461bcd60e51b815260206004820152603560248201527f436f6d70616e79206a75737420686173206f6e65206d656d6265722e20506c6560448201527430b9b2903234b9b9b7b63b329021b7b6b830b73c9760591b60648201526084016103cc565b3360009081526003602052604090206001015461099d5760405162461bcd60e51b815260206004820152601060248201526f27379039b430b932b9903830bcb2b21760811b60448201526064016103cc565b60006109a93383610e55565b6000838152600c60205260409020549091506109c690829061142d565b6000838152600c60205260409020556109df3382610eed565b33600090815260036020818152604080842080546001600160a01b03191681556001808201869055600282018690559301805460ff1916905585845260059091528220805491929091610a3390849061142d565b9091555050600082815260086020908152604080832033808552908352818420805460ff199081169091556007909352922080549091169055610a77908390610f28565b6000828152600960205260409081902090517f578c6a515464f9669d547f1b4bd7d83934fc2c3cd0ea43fadc89376d524de5c09161089f918591903390611444565b6000600a84604051610acb9190611327565b9081526040519081900360200190205460ff1615610b245760405162461bcd60e51b8152602060048201526016602482015275436f6d70616e7920616c72656164792065786973747360501b60448201526064016103cc565b6001805480820182556000919091528451610b66917fb10e2d527612073b26eecdfd717e6a320cf44b4afac2b0732d9fcbe2b7fa0cf601906020870190611042565b5060018054600091610b779161142d565b60008181526009602090815260409091208751929350610b9b929091880190611042565b506000818152600560209081526040808320869055600b8252808320879055600c9091528082209190915551600190600a90610bd8908890611327565b90815260408051918290036020908101909220805493151560ff19948516179055600084815260068352818120819055338082526003845282822080546001600160a01b031990811683178255600290910187905586835260048552838320805460018181018355918552868520018054909216831790915586835260088552838320918352908452828220805486168217905560079093522080549092161790557fa23153e0aa97e342ddf43ef137344681c051370a794dc94caecf818bf633c7d681868686604051610caf94939291906114e7565b60405180910390a1949350505050565b600081815260056020908152604080832054600b90925290912054610ce49190611513565b341015610d295760405162461bcd60e51b81526020600482015260136024820152720ecc2d8eaca40d2e640dcdee840cadcdeeaced606b1b60448201526064016103cc565b60008181526008602090815260408083203384528252808320805460ff191690556003825280832034600191909101819055848452600c9092528220805491929091610d76908490611535565b9091555050604080513481523360208201529081018290527fdb4180dac917b30af1e3b7cd73c7a8ae35b1838cb62ffcf24e2b6cc47bd732489060600160405180910390a150565b600081815260046020908152604091829020805483518184028101840190945280845260609392830182828015610e1e57602002820191906000526020600020905b81546001600160a01b03168152600190910190602001808311610e00575b50505050509050919050565b60018181548110610e3a57600080fd5b906000526020600020016000915090508054610243906112ec565b600081815260056020908152604080832054600c9092528220548291610e7a91611513565b6001600160a01b0385166000908152600360205260409020600101541015610ebe57506001600160a01b038316600090815260036020526040902060010154610ee6565b600083815260056020908152604080832054600c90925290912054610ee39190611513565b90505b9392505050565b6040516001600160a01b0383169082156108fc029083906000818181858888f19350505050158015610f23573d6000803e3d6000fd5b505050565b60005b600083815260046020526040902080546001600160a01b038416919083908110610f5757610f576113e6565b6000918252602090912001546001600160a01b031614610f835780610f7b816113cb565b915050610f2b565b600083815260046020526040902054610f9e9060019061142d565b811015610f23576000838152600460205260409020610fbe826001611535565b81548110610fce57610fce6113e6565b60009182526020808320909101548583526004909152604090912080546001600160a01b039092169183908110611007576110076113e6565b600091825260209091200180546001600160a01b0319166001600160a01b03929092169190911790558061103a816113cb565b915050610f83565b82805461104e906112ec565b90600052602060002090601f01602090048101928261107057600085556110b6565b82601f1061108957805160ff19168380011785556110b6565b828001600101855582156110b6579182015b828111156110b657825182559160200191906001019061109b565b506110c29291506110c6565b5090565b5b808211156110c257600081556001016110c7565b60005b838110156110f65781810151838201526020016110de565b83811115611105576000848401525b50505050565b600081518084526111238160208601602086016110db565b601f01601f19169290920160200192915050565b602081526000610ee6602083018461110b565b60006020828403121561115c57600080fd5b5035919050565b6000602080830181845280855180835260408601915060408160051b870101925083870160005b828110156111b857603f198886030184526111a685835161110b565b9450928501929085019060010161118a565b5092979650505050505050565b634e487b7160e01b600052604160045260246000fd5b6000806000606084860312156111f057600080fd5b833567ffffffffffffffff8082111561120857600080fd5b818601915086601f83011261121c57600080fd5b81358181111561122e5761122e6111c5565b604051601f8201601f19908116603f01168101908382118183101715611256576112566111c5565b8160405282815289602084870101111561126f57600080fd5b82602086016020830137600060208483010152809750505050505060208401359150604084013590509250925092565b6020808252825182820181905260009190848201906040850190845b818110156112e05783516001600160a01b0316835292840192918401916001016112bb565b50909695505050505050565b600181811c9082168061130057607f821691505b6020821081141561132157634e487b7160e01b600052602260045260246000fd5b50919050565b600082516113398184602087016110db565b9190910192915050565b6000808354611351816112ec565b60018281168015611369576001811461137a576113a9565b60ff198416875282870194506113a9565b8760005260208060002060005b858110156113a05781548a820152908401908201611387565b50505082870194505b50929695505050505050565b634e487b7160e01b600052601160045260246000fd5b60006000198214156113df576113df6113b5565b5060010190565b634e487b7160e01b600052603260045260246000fd5b838152606060208201526000611415606083018561110b565b905060018060a01b0383166040830152949350505050565b60008282101561143f5761143f6113b5565b500390565b838152600060206060818401526000855461145e816112ec565b80606087015260806001808416600081146114805760018114611494576114c2565b60ff1985168984015260a0890195506114c2565b8a6000528660002060005b858110156114ba5781548b820186015290830190880161149f565b8a0184019650505b505050506001600160a01b03861660408601525091506114df9050565b949350505050565b848152608060208201526000611500608083018661110b565b6040830194909452506060015292915050565b60008261153057634e487b7160e01b600052601260045260246000fd5b500490565b60008219821115611548576115486113b5565b50019056fea264697066735822122049c141a5c2e70279694b3e37631098bcd3959099676e8299a14842a7a0f7bdd464736f6c634300080a0033",
  "immutableReferences": {},
  "source": "// SPDX-License-Identifier: MIT\npragma solidity 0.8.10;\n\n\ncontract Company {\n\n    ///////////////////////////\n    /////////CONSTRUCTOR///////\n    ///////////////////////////\n\n    constructor(){\n        //governance = governance_;\n        governance = msg.sender;\n    }\n\n    ///////////////////////////\n    /////////VARIABLES/////////\n    ///////////////////////////\n\n    //owner of contract\n    address public governance;\n    string[] public company;\n    string public name = \"Found your own company\";\n\n    //every Member of a company is a shareholder\n    // a member consists of address, amount of coins investested and boolean for polling if company should be dissolved\n    struct Member{\n        address member;\n        uint256 amount; //payed amount per member\n        uint256 companyId;\n        bool wantDissolveCompany;\n    }\n\n\n\n    ///////////////////////////\n    /////////MAPPINGS//////////\n    ///////////////////////////\n\n    //company and member specific\n    mapping(address => Member) internal addressMember; //map address to the member\n    mapping(uint256 => address[]) internal memberAddresses;\n    mapping(uint256 => uint256) internal memberAmount; // map amount company id to amount of members\n    mapping(uint256 => uint256) internal amountWantDissolveCompany; //map company id to amount of members who want to dissolve the company\n\n    //memberregister\n    mapping(address => bool) internal memberOfAnyCompany; //all addresses who are members to any company\n    mapping(uint256 => mapping(address => bool)) memberOfCertainCompany; //member of a certain company\n\n    //companyregister\n    mapping(uint256 => string) internal names; // map company id to name of company\n    mapping(string => bool) internal companyExists; //map company name to bool\n\n    //companycapitalrelated\n    mapping(uint256 => uint256) internal foundingcapitalgoal; //starting capital per companyId\n    mapping(uint256 => uint256) internal payedCapital; //payedCapital per company\n\n\n    ///////////////////////////\n    /////////EVENTS////////////\n    ///////////////////////////\n\n    event Received(uint256 value, address sender, uint256 companyId);\n    event Founded(uint256 companyId, string name, uint256 foundingcapitalgoal, uint256 memberAmount);\n    event Dissolved(uint256 companyId, string name, address sender);\n    event Left(uint256 companyId, string name, address sender);\n\n\n    ///////////////////////////\n    /////////FUNCTIONS/////////\n    ///////////////////////////\n\n    function found(string memory _name, uint256 _foundingcapitalgoal, uint256 _memberAmount) external returns (uint256) {\n        require(!companyExists[_name], 'Company already exists');\n        // keine Namenssperre vorhanden?\n\n        //company anlegen\n        company.push(_name);\n        uint256 companyId = company.length -1;\n        names[companyId] = _name;\n        memberAmount[companyId] = _memberAmount;\n        foundingcapitalgoal[companyId] = _foundingcapitalgoal;\n        payedCapital[companyId] = 0;\n        companyExists[_name] = true;\n        amountWantDissolveCompany[companyId]=0;\n\n        //msg.sender is first founder\n        createMember(msg.sender, companyId);\n        emit Founded(companyId, _name, _foundingcapitalgoal, _memberAmount);\n        return companyId;\n    }\n\n    function createMember(address newAddress , uint256 companyId) internal {\n        addressMember[newAddress].member = newAddress;\n        addressMember[newAddress].companyId = companyId;\n        memberAddresses[companyId].push(newAddress);\n        memberOfCertainCompany[companyId][newAddress] = true;\n        memberOfAnyCompany[newAddress] = true;\n    }\n\n    function payShare(uint256 companyId) external payable {\n        // external means less gas fees\n        // value needs to be more than expected companyfoundingcapital devided by amount of founders\n        require(msg.value >= foundingcapitalgoal[companyId]/memberAmount[companyId], 'value is not enough');\n\n        //if member is new, create member and assign to company\n        if (memberOfCertainCompany[companyId][msg.sender] = false){\n            createMember(msg.sender, companyId);\n        }\n        //save payed amount in correct member\n        addressMember[msg.sender].amount = msg.value;\n        payedCapital[companyId] += msg.value;\n\n        emit Received(msg.value, msg.sender, companyId);\n    }\n\n\n    function leaveCompany(uint256 companyId) external  {\n        //check, if user is part of the company\n        require(memberOfCertainCompany[companyId][msg.sender] = true, 'Address is not member of the company.');\n        //check, if company has more than one member\n        require(memberAddresses[companyId].length >1, 'Company just has one member. Please dissolve Company.');\n        //evtl. dissokve automatisch aufrufen\n        require(addressMember[msg.sender].amount > 0, 'No shares payed.');\n        //calculate the retun amount\n        uint256 returnMoney = calcReturnAmount(msg.sender, companyId);\n\n        //if payed amount is smaller than part of payedcapital --> return amount payed, else return part of capital\n\n        payedCapital[companyId] = payedCapital[companyId] - returnMoney;\n        transfer(payable(msg.sender), returnMoney); //msg.sender needs to be casted to payable to receive ETH\n\n        //remove address from all mappings\n        delete addressMember[msg.sender];\n        memberAmount[companyId] -= 1;\n        memberOfCertainCompany[companyId][msg.sender] = false;\n        memberOfAnyCompany[msg.sender] = false;\n        removeFromMemberAddresses(companyId, msg.sender);\n        emit Left(companyId, names[companyId], msg.sender);\n    }\n\n    //internal function to calculate the return amount\n    function calcReturnAmount(address returnAddress, uint256 companyId) internal view returns(uint256){\n        uint256 returnMoney = 0;\n        if (addressMember[returnAddress].amount < payedCapital[companyId]/memberAmount[companyId]){\n            returnMoney =  addressMember[returnAddress].amount;\n        } else {\n            returnMoney = payedCapital[companyId]/memberAmount[companyId];\n        }\n        return returnMoney;\n    }\n\n    //internal function to remove the address from mapping array\n    function removeFromMemberAddresses(uint256 companyId, address removeAddress) internal {\n        uint i = 0;\n        //search position of address in array\n        while (memberAddresses[companyId][i] != removeAddress) {\n            i++;\n        }\n        //replace deleted address by decrementing and moving all following addresses by 1\n        while (i<memberAddresses[companyId].length-1) {\n            memberAddresses[companyId][i] = memberAddresses[companyId][i+1];\n            i++;\n        }\n    }\n\n    //transfer function\n    function transfer(address payable to, uint256 amount) internal {\n        to.transfer(amount);\n    }\n\n\n\n    //every of the members need to run this function\n    function dissolveCompany(uint256 companyId) public {\n        require(memberOfCertainCompany[companyId][msg.sender] = true, 'Address is not member of any company.');\n        require(companyExists[names[companyId]] = true, 'company does not exist');\n        string memory companyName = names[companyId];\n        //ob msg.sender ist der letzte\n        // wenn ja, dann berweisen\n        // wenn nein, wantDissolveCompany fr member auf true\n\n        if (addressMember[msg.sender].wantDissolveCompany = false){\n            addressMember[msg.sender].wantDissolveCompany = true;\n            amountWantDissolveCompany[companyId]++;\n        }\n        if (amountWantDissolveCompany[companyId] == memberAmount[companyId]){\n            uint256 i = 0;\n            while (i < memberAmount[companyId]){ //array starts from 0\n                address returnAddress =memberAddresses[companyId][i];\n                uint256 returnAmount = calcReturnAmount(returnAddress, companyId);\n                transfer(payable(returnAddress), returnAmount);\n                i++;\n            }\n\n            // delete everything\n\n            // return erfolgreich\n        }\n        emit Dissolved(companyId, companyName, msg.sender);\n\n    }\n\n    //returns memberAddresses\n    function getMembersById(uint256 companyId) external view returns  (address[] memory) {\n        return(memberAddresses[companyId]);\n    }\n\n    function getAllCompanies() external view returns (string[] memory) {\n        return company;\n    }\n\n    function getCompanyById(uint256 companyId) external view returns (string memory) {\n        string memory compName = names[companyId];\n        require(companyExists[compName] == true, \"no company with this ID\");\n        return names[companyId];\n    }\n    function getCompanyBalanceById(uint256 companyId) external view returns (uint256) {\n        string memory compName = names[companyId];\n        require(companyExists[compName] == true, \"no company with this ID\");\n        return payedCapital[companyId];\n    }\n}",
  "sourcePath": "/Users/felixwilberg/code/found_company/src/contracts/Company.sol",
  "compiler": {
    "name": "solc",
    "version": "0.8.10+commit.fc410830.Emscripten.clang"
  },
  "schemaVersion": "3.4.3",
  "updatedAt": "2022-02-06T23:56:56.244Z",
  "devdoc": {
    "kind": "dev",
    "methods": {},
    "version": 1
  },
  "userdoc": {
    "kind": "user",
    "methods": {},
    "version": 1
  }
}