{
  "contractName": "Company",
  "abi": [
    {
      "inputs": [],
      "stateMutability": "nonpayable",
      "type": "constructor"
    },
    {
      "anonymous": false,
      "inputs": [
        {
          "indexed": false,
          "internalType": "uint256",
          "name": "companyId",
          "type": "uint256"
        },
        {
          "indexed": false,
          "internalType": "string",
          "name": "name",
          "type": "string"
        }
      ],
      "name": "Dissolved",
      "type": "event"
    },
    {
      "anonymous": false,
      "inputs": [
        {
          "indexed": false,
          "internalType": "uint256",
          "name": "companyId",
          "type": "uint256"
        },
        {
          "indexed": false,
          "internalType": "string",
          "name": "name",
          "type": "string"
        },
        {
          "indexed": false,
          "internalType": "uint256",
          "name": "foundingcapitalgoal",
          "type": "uint256"
        },
        {
          "indexed": false,
          "internalType": "uint256",
          "name": "memberAmount",
          "type": "uint256"
        }
      ],
      "name": "Founded",
      "type": "event"
    },
    {
      "anonymous": false,
      "inputs": [
        {
          "indexed": false,
          "internalType": "uint256",
          "name": "value",
          "type": "uint256"
        },
        {
          "indexed": false,
          "internalType": "address",
          "name": "sender",
          "type": "address"
        }
      ],
      "name": "Received",
      "type": "event"
    },
    {
      "inputs": [
        {
          "internalType": "uint256",
          "name": "",
          "type": "uint256"
        }
      ],
      "name": "company",
      "outputs": [
        {
          "internalType": "string",
          "name": "",
          "type": "string"
        }
      ],
      "stateMutability": "view",
      "type": "function"
    },
    {
      "inputs": [],
      "name": "governance",
      "outputs": [
        {
          "internalType": "address",
          "name": "",
          "type": "address"
        }
      ],
      "stateMutability": "view",
      "type": "function"
    },
    {
      "inputs": [],
      "name": "name",
      "outputs": [
        {
          "internalType": "string",
          "name": "",
          "type": "string"
        }
      ],
      "stateMutability": "view",
      "type": "function"
    },
    {
      "inputs": [
        {
          "internalType": "string",
          "name": "_name",
          "type": "string"
        },
        {
          "internalType": "uint256",
          "name": "_foundingcapitalgoal",
          "type": "uint256"
        },
        {
          "internalType": "uint256",
          "name": "_memberAmount",
          "type": "uint256"
        }
      ],
      "name": "found",
      "outputs": [
        {
          "internalType": "uint256",
          "name": "",
          "type": "uint256"
        }
      ],
      "stateMutability": "nonpayable",
      "type": "function"
    },
    {
      "inputs": [
        {
          "internalType": "uint256",
          "name": "companyId",
          "type": "uint256"
        }
      ],
      "name": "payShare",
      "outputs": [
        {
          "internalType": "uint256",
          "name": "",
          "type": "uint256"
        }
      ],
      "stateMutability": "payable",
      "type": "function"
    },
    {
      "inputs": [
        {
          "internalType": "uint256",
          "name": "companyId",
          "type": "uint256"
        }
      ],
      "name": "leaveCompany",
      "outputs": [
        {
          "internalType": "uint256",
          "name": "",
          "type": "uint256"
        }
      ],
      "stateMutability": "nonpayable",
      "type": "function"
    },
    {
      "inputs": [
        {
          "internalType": "uint256",
          "name": "companyId",
          "type": "uint256"
        }
      ],
      "name": "dissolveCompany",
      "outputs": [],
      "stateMutability": "nonpayable",
      "type": "function"
    },
    {
      "inputs": [
        {
          "internalType": "uint256",
          "name": "companyId",
          "type": "uint256"
        }
      ],
      "name": "getMembers",
      "outputs": [
        {
          "internalType": "address[]",
          "name": "",
          "type": "address[]"
        }
      ],
      "stateMutability": "view",
      "type": "function"
    },
    {
      "inputs": [],
      "name": "getAllCompanies",
      "outputs": [
        {
          "internalType": "string[]",
          "name": "",
          "type": "string[]"
        }
      ],
      "stateMutability": "view",
      "type": "function"
    },
    {
      "inputs": [
        {
          "internalType": "uint256",
          "name": "companyId",
          "type": "uint256"
        }
      ],
      "name": "getMyCompanyById",
      "outputs": [
        {
          "internalType": "string",
          "name": "",
          "type": "string"
        }
      ],
      "stateMutability": "view",
      "type": "function"
    },
    {
      "inputs": [
        {
          "internalType": "uint256",
          "name": "companyId",
          "type": "uint256"
        }
      ],
      "name": "getCompanyBalanceById",
      "outputs": [
        {
          "internalType": "uint256",
          "name": "",
          "type": "uint256"
        }
      ],
      "stateMutability": "view",
      "type": "function"
    }
  ],
  "bytecode": "0x60c0604052601660808190527f466f756e6420796f7572206f776e20636f6d70616e790000000000000000000060a090815262000040916002919062000067565b503480156200004e57600080fd5b50600080546001600160a01b031916331790556200014a565b82805462000075906200010d565b90600052602060002090601f016020900481019282620000995760008555620000e4565b82601f10620000b457805160ff1916838001178555620000e4565b82800160010185558215620000e4579182015b82811115620000e4578251825591602001919060010190620000c7565b50620000f2929150620000f6565b5090565b5b80821115620000f25760008155600101620000f7565b600181811c908216806200012257607f821691505b602082108114156200014457634e487b7160e01b600052602260045260246000fd5b50919050565b611465806200015a6000396000f3fe60806040526004361061009c5760003560e01c8063804e29ad11610064578063804e29ad14610176578063b79c800914610196578063c477ecab146101b6578063c4f32302146101e3578063c97320a714610203578063eacebba31461021657600080fd5b806306fdde03146100a1578063408bf4c3146100cc5780635aa6e675146100ee578063624159b814610126578063751ac34914610154575b600080fd5b3480156100ad57600080fd5b506100b6610236565b6040516100c39190611060565b60405180910390f35b3480156100d857600080fd5b506100e16102c4565b6040516100c39190611073565b3480156100fa57600080fd5b5060005461010e906001600160a01b031681565b6040516001600160a01b0390911681526020016100c3565b34801561013257600080fd5b506101466101413660046110d5565b61039d565b6040519081526020016100c3565b34801561016057600080fd5b5061017461016f3660046110d5565b6104c0565b005b34801561018257600080fd5b506101466101913660046110d5565b610666565b3480156101a257600080fd5b506101466101b1366004611104565b61083b565b3480156101c257600080fd5b506101d66101d13660046110d5565b610a41565b6040516100c391906111c8565b3480156101ef57600080fd5b506100b66101fe3660046110d5565b610aad565b6101466102113660046110d5565b610c58565b34801561022257600080fd5b506100b66102313660046110d5565b610d53565b6002805461024390611215565b80601f016020809104026020016040519081016040528092919081815260200182805461026f90611215565b80156102bc5780601f10610291576101008083540402835291602001916102bc565b820191906000526020600020905b81548152906001019060200180831161029f57829003601f168201915b505050505081565b60606001805480602002602001604051908101604052809291908181526020016000905b8282101561039457838290600052602060002001805461030790611215565b80601f016020809104026020016040519081016040528092919081815260200182805461033390611215565b80156103805780601f1061035557610100808354040283529160200191610380565b820191906000526020600020905b81548152906001019060200180831161036357829003601f168201915b5050505050815260200190600101906102e8565b50505050905090565b600081815260096020526040812080548291906103b990611215565b80601f01602080910402602001604051908101604052809291908181526020018280546103e590611215565b80156104325780601f1061040757610100808354040283529160200191610432565b820191906000526020600020905b81548152906001019060200180831161041557829003601f168201915b50505050509050600a816040516104499190611250565b9081526040519081900360200190205460ff1615156001146104ac5760405162461bcd60e51b81526020600482015260176024820152761b9bc818dbdb5c185b9e481dda5d1a081d1a1a5cc81251604a1b60448201526064015b60405180910390fd5b50506000908152600c602052604090205490565b60008181526008602090815260408083203384529091529020805460ff191660011790556001600a60096000848152602001908152602001600020604051610508919061126c565b908152604051908190036020019020805482151560ff1990911617905561056a5760405162461bcd60e51b815260206004820152601660248201527518dbdb5c185b9e48191bd95cc81b9bdd08195e1a5cdd60521b60448201526064016104a3565b336000908152600360208181526040808420909201805460ff1916905583835260058152818320546006909152912054141561061b5760005b6000828152600560205260409020548110156106195760008281526004602052604081208054839081106105d9576105d961130f565b60009182526020822001546001600160a01b031691506105f98285610d7e565b90506106058282610e16565b8261060f816112f4565b93505050506105a3565b505b6000818152600960205260409081902090517fef53271c4c0e7398caf65fbf39308d356e34ee416d6ed519dc073d553396fade9161065b91849190611325565b60405180910390a150565b60008181526008602090815260408083203384529091528120805460ff191660011790556000828152600460205260409020546001106107065760405162461bcd60e51b815260206004820152603560248201527f436f6d70616e79206a75737420686173206f6e65206d656d6265722e20506c6560448201527430b9b2903234b9b9b7b63b329021b7b6b830b73c9760591b60648201526084016104a3565b336000908152600360205260409020600101546107585760405162461bcd60e51b815260206004820152601060248201526f27379039b430b932b9903830bcb2b21760811b60448201526064016104a3565b60006107643384610d7e565b6000848152600c60205260409020549091506107819082906113b2565b6000848152600c602052604090205561079a3382610e16565b33600090815260036020818152604080842080546001600160a01b03191681556001808201869055600282018690559301805460ff19169055868452600590915282208054919290916107ee9084906113b2565b9091555050600083815260086020908152604080832033808552908352818420805460ff199081169091556007909352922080549091169055610832908490610e51565b50600192915050565b6000600a8460405161084d9190611250565b9081526040519081900360200190205460ff16156108a65760405162461bcd60e51b8152602060048201526016602482015275436f6d70616e7920616c72656164792065786973747360501b60448201526064016104a3565b60018054808201825560009190915284516108e8917fb10e2d527612073b26eecdfd717e6a320cf44b4afac2b0732d9fcbe2b7fa0cf601906020870190610f6b565b50600180546000916108f9916113b2565b6000818152600960209081526040909120875192935061091d929091880190610f6b565b506000818152600560209081526040808320869055600b8252808320879055600c9091528082209190915551600190600a9061095a908890611250565b90815260408051918290036020908101909220805493151560ff19948516179055600084815260068352818120819055338082526003845282822080546001600160a01b031990811683178255600290910187905586835260048552838320805460018181018355918552868520018054909216831790915586835260088552838320918352908452828220805486168217905560079093522080549092161790557fa23153e0aa97e342ddf43ef137344681c051370a794dc94caecf818bf633c7d681868686604051610a3194939291906113c9565b60405180910390a1949350505050565b600081815260046020908152604091829020805483518184028101840190945280845260609392830182828015610aa157602002820191906000526020600020905b81546001600160a01b03168152600190910190602001808311610a83575b50505050509050919050565b600081815260096020526040812080546060929190610acb90611215565b80601f0160208091040260200160405190810160405280929190818152602001828054610af790611215565b8015610b445780601f10610b1957610100808354040283529160200191610b44565b820191906000526020600020905b815481529060010190602001808311610b2757829003601f168201915b50505050509050600a81604051610b5b9190611250565b9081526040519081900360200190205460ff161515600114610bb95760405162461bcd60e51b81526020600482015260176024820152761b9bc818dbdb5c185b9e481dda5d1a081d1a1a5cc81251604a1b60448201526064016104a3565b60008381526009602052604090208054610bd290611215565b80601f0160208091040260200160405190810160405280929190818152602001828054610bfe90611215565b8015610c4b5780601f10610c2057610100808354040283529160200191610c4b565b820191906000526020600020905b815481529060010190602001808311610c2e57829003601f168201915b5050505050915050919050565b600081815260056020908152604080832054600b909252822054610c7c91906113f5565b341015610cc15760405162461bcd60e51b81526020600482015260136024820152720ecc2d8eaca40d2e640dcdee840cadcdeeaced606b1b60448201526064016104a3565b60008281526008602090815260408083203384528252808320805460ff191690556003825280832034600191909101819055858452600c9092528220805491929091610d0e908490611417565b9091555050604080513481523360208201527f8863e458255c600ae3e61be347822f3ee57088c8538b68b5dd2357e682e59e19910160405180910390a1506001919050565b60018181548110610d6357600080fd5b90600052602060002001600091509050805461024390611215565b600081815260056020908152604080832054600c9092528220548291610da3916113f5565b6001600160a01b0385166000908152600360205260409020600101541015610de757506001600160a01b038316600090815260036020526040902060010154610e0f565b600083815260056020908152604080832054600c90925290912054610e0c91906113f5565b90505b9392505050565b6040516001600160a01b0383169082156108fc029083906000818181858888f19350505050158015610e4c573d6000803e3d6000fd5b505050565b60005b600083815260046020526040902080546001600160a01b038416919083908110610e8057610e8061130f565b6000918252602090912001546001600160a01b031614610eac5780610ea4816112f4565b915050610e54565b600083815260046020526040902054610ec7906001906113b2565b811015610e4c576000838152600460205260409020610ee7826001611417565b81548110610ef757610ef761130f565b60009182526020808320909101548583526004909152604090912080546001600160a01b039092169183908110610f3057610f3061130f565b600091825260209091200180546001600160a01b0319166001600160a01b039290921691909117905580610f63816112f4565b915050610eac565b828054610f7790611215565b90600052602060002090601f016020900481019282610f995760008555610fdf565b82601f10610fb257805160ff1916838001178555610fdf565b82800160010185558215610fdf579182015b82811115610fdf578251825591602001919060010190610fc4565b50610feb929150610fef565b5090565b5b80821115610feb5760008155600101610ff0565b60005b8381101561101f578181015183820152602001611007565b8381111561102e576000848401525b50505050565b6000815180845261104c816020860160208601611004565b601f01601f19169290920160200192915050565b602081526000610e0f6020830184611034565b6000602080830181845280855180835260408601915060408160051b870101925083870160005b828110156110c857603f198886030184526110b6858351611034565b9450928501929085019060010161109a565b5092979650505050505050565b6000602082840312156110e757600080fd5b5035919050565b634e487b7160e01b600052604160045260246000fd5b60008060006060848603121561111957600080fd5b833567ffffffffffffffff8082111561113157600080fd5b818601915086601f83011261114557600080fd5b813581811115611157576111576110ee565b604051601f8201601f19908116603f0116810190838211818310171561117f5761117f6110ee565b8160405282815289602084870101111561119857600080fd5b82602086016020830137600060208483010152809750505050505060208401359150604084013590509250925092565b6020808252825182820181905260009190848201906040850190845b818110156112095783516001600160a01b0316835292840192918401916001016111e4565b50909695505050505050565b600181811c9082168061122957607f821691505b6020821081141561124a57634e487b7160e01b600052602260045260246000fd5b50919050565b60008251611262818460208701611004565b9190910192915050565b600080835461127a81611215565b6001828116801561129257600181146112a3576112d2565b60ff198416875282870194506112d2565b8760005260208060002060005b858110156112c95781548a8201529084019082016112b0565b50505082870194505b50929695505050505050565b634e487b7160e01b600052601160045260246000fd5b6000600019821415611308576113086112de565b5060010190565b634e487b7160e01b600052603260045260246000fd5b828152600060206040818401526000845461133f81611215565b80604087015260606001808416600081146113615760018114611375576113a3565b60ff198516898401526080890195506113a3565b896000528660002060005b8581101561139b5781548b8201860152908301908801611380565b8a0184019650505b50939998505050505050505050565b6000828210156113c4576113c46112de565b500390565b8481526080602082015260006113e26080830186611034565b6040830194909452506060015292915050565b60008261141257634e487b7160e01b600052601260045260246000fd5b500490565b6000821982111561142a5761142a6112de565b50019056fea2646970667358221220dbacbdeba30686beac350d10990cf2822807adf070a7e3f4a185d2450936170864736f6c634300080a0033",
  "immutableReferences": {},
  "source": "// SPDX-License-Identifier: MIT\npragma solidity 0.8.10;\n\n\ncontract Company {\n\n    ///////////////////////////\n    /////////CONSTRUCTOR///////\n    ///////////////////////////\n\n    constructor(){\n        //governance = governance_;\n        governance = msg.sender;\n    }\n\n    ///////////////////////////\n    /////////VARIABLES/////////\n    ///////////////////////////\n\n    //owner of contract\n    address public governance;\n    string[] public company;\n    string public name = \"Found your own company\";\n\n    //every Member of a company is a shareholder\n    // a member consists of address, amount of coins investested and boolean for polling if company should be dissolved\n    struct Member{\n        address member;\n        uint256 amount;\n        uint256 companyId;\n        bool wantDissolveCompany;\n    }\n\n\n\n    ///////////////////////////\n    /////////MAPPINGS//////////\n    ///////////////////////////\n\n    //company and member specific\n    mapping(address => Member) internal addressMember; //map address to the member\n    //mapping(uint256 => Member[]) internal members; // map\n    mapping(uint256 => address[]) internal memberAddresses;\n    mapping(uint256 => uint256) internal memberAmount; // map amount company id to amount of members\n    mapping(uint256 => uint256) internal amountWantDissolveCompany; //map company id to amount of members who want to dissolve the company\n\n    //memberregister\n    mapping(address => bool) internal memberOfAnyCompany; //all addresses who are members to any company\n    mapping(uint256 => mapping(address => bool)) memberOfCertainCompany; //member of a certain company\n\n    //companyregister\n    mapping(uint256 => string) internal names; // map company id to name of company\n    mapping(string => bool) internal companyExists; //map company name to bool\n\n    //companycapitalrelated\n    mapping(uint256 => uint256) internal foundingcapitalgoal; //starting capital per companyId\n    mapping(uint256 => uint256) internal payedCapital; //payedCapital per company\n\n\n    ///////////////////////////\n    /////////EVENTS////////////\n    ///////////////////////////\n\n    event Received(uint256 value, address sender);\n    event Founded(uint256 companyId, string name, uint256 foundingcapitalgoal, uint256 memberAmount);\n    event Dissolved(uint256 companyId, string name);\n\n\n    ///////////////////////////\n    /////////FUNCTIONS/////////\n    ///////////////////////////\n\n    function found(string memory _name, uint256 _foundingcapitalgoal, uint256 _memberAmount) external returns (uint256) {\n        require(!companyExists[_name], 'Company already exists');\n        // keine Namenssperre vorhanden?\n\n        //company anlegen\n        company.push(_name);\n        uint256 companyId = company.length -1;\n        names[companyId] = _name;\n        memberAmount[companyId] = _memberAmount;\n        foundingcapitalgoal[companyId] = _foundingcapitalgoal;\n        payedCapital[companyId] = 0;\n        companyExists[_name] = true;\n        amountWantDissolveCompany[companyId]=0;\n\n        //msg.sender is first founder\n        createMember(msg.sender, companyId);\n        emit Founded(companyId, _name, _foundingcapitalgoal, _memberAmount);\n        return companyId;\n    }\n\n    function createMember(address newAddress , uint256 companyId) internal {\n        addressMember[newAddress].member = newAddress;\n        addressMember[newAddress].companyId = companyId;\n        memberAddresses[companyId].push(newAddress);\n        memberOfCertainCompany[companyId][newAddress] = true;\n        memberOfAnyCompany[newAddress] = true;\n    }\n\n    function payShare(uint256 companyId) external payable returns(uint256) {   //external means less gas fees\n        // value needs to be more than expected companyfoundingcapital devided by amount of founders\n        require(msg.value >= foundingcapitalgoal[companyId]/memberAmount[companyId], 'value is not enough');\n\n        //if member is new, create member and assign to company\n        if (memberOfCertainCompany[companyId][msg.sender] = false){\n            createMember(msg.sender, companyId);\n        }\n        //save payed amount in correct member\n        addressMember[msg.sender].amount = msg.value;\n        payedCapital[companyId] += msg.value;\n\n        //return 1 for success and missing capital\n        //uint256 missing = foundingcapitalgoal[companyId] - payedCapital[companyId];\n\n        emit Received(msg.value, msg.sender);\n        return(1);\n    }\n\n\n    function leaveCompany(uint256 companyId) external returns (uint256) {\n        //check, if user is part of the company\n        require(memberOfCertainCompany[companyId][msg.sender] = true, 'Address is not member of the company.');\n        //check, if company has more than one member\n        require(memberAddresses[companyId].length >1, 'Company just has one member. Please dissolve Company.');\n        //evtl. dissokve automatisch aufrufen\n        require(addressMember[msg.sender].amount > 0, 'No shares payed.');\n        //variable for the returnmoney\n        uint256 returnMoney = calcReturnAmount(msg.sender, companyId);\n\n        //if payed amount is smaller than part of payedcapital --> return amount payed, else return part of capital\n\n        payedCapital[companyId] = payedCapital[companyId] - returnMoney;\n        transfer(payable(msg.sender), returnMoney); //msg.sender needs to be casted to payable to receive ETH\n\n        //remove address from all mappings\n        delete addressMember[msg.sender];\n        memberAmount[companyId] -= 1;\n        memberOfCertainCompany[companyId][msg.sender] = false;\n        memberOfAnyCompany[msg.sender] = false;\n        removeFromMemberAddresses(companyId, msg.sender);\n        return(1);\n    }\n\n    //internal function to calculate the return amount\n    function calcReturnAmount(address returnAddress, uint256 companyId) internal view returns(uint256){\n        uint256 returnMoney = 0;\n        if (addressMember[returnAddress].amount < payedCapital[companyId]/memberAmount[companyId]){\n            returnMoney =  addressMember[returnAddress].amount;\n        } else {\n            returnMoney = payedCapital[companyId]/memberAmount[companyId];\n        }\n        return returnMoney;\n    }\n\n    //internal function to remove the address from mapping array\n    function removeFromMemberAddresses(uint256 companyId, address removeAddress) internal {\n        uint i = 0;\n        while (memberAddresses[companyId][i] != removeAddress) {\n            i++;\n        }\n        while (i<memberAddresses[companyId].length-1) {\n            memberAddresses[companyId][i] = memberAddresses[companyId][i+1];\n            i++;\n        }\n    }\n\n    //transfer function\n    function transfer(address payable to, uint256 amount) internal {\n        to.transfer(amount);\n    }\n\n\n\n    //every of the members need to run this function\n    function dissolveCompany(uint256 companyId) public {\n        require(memberOfCertainCompany[companyId][msg.sender] = true, 'Address is not member of any company.');\n        require(companyExists[names[companyId]] = true, 'company does not exist');\n        //ob msg.sender ist der letzte\n        // wenn ja, dann berweisen\n        // wenn nein, wantDissolveCompany fr member auf true\n\n        if (addressMember[msg.sender].wantDissolveCompany = false){\n            addressMember[msg.sender].wantDissolveCompany = true;\n            amountWantDissolveCompany[companyId]++;\n        }\n        if (amountWantDissolveCompany[companyId] == memberAmount[companyId]){\n            uint256 i = 0;\n            while (i < memberAmount[companyId]){ //array starts from 0\n                address returnAddress =memberAddresses[companyId][i];\n                uint256 returnAmount = calcReturnAmount(returnAddress, companyId);\n                transfer(payable(returnAddress), returnAmount);\n                i++;\n            }\n\n            // delete everything\n\n            // return erfolgreich\n        }\n        // 1 Jahr Sperre fr Namen\n        emit Dissolved(companyId, names[companyId]);\n\n    }\n\n    //returns memberAddresses\n    function getMembers(uint256 companyId) external view returns  (address[] memory) {\n        return(memberAddresses[companyId]);\n    }\n\n    function getAllCompanies() external view returns (string[] memory) {\n        return company;\n    }\n\n    function getMyCompanyById(uint256 companyId) external view returns (string memory) {\n        string memory compName = names[companyId];\n        require(companyExists[compName] == true, \"no company with this ID\");\n        return names[companyId];\n    }\n    function getCompanyBalanceById(uint256 companyId) external view returns (uint256) {\n        string memory compName = names[companyId];\n        require(companyExists[compName] == true, \"no company with this ID\");\n        return payedCapital[companyId];\n    }\n}",
  "sourcePath": "/Users/felixwilberg/code/found_company/src/contracts/Company.sol",
  "compiler": {
    "name": "solc",
    "version": "0.8.10+commit.fc410830.Emscripten.clang"
  },
  "schemaVersion": "3.4.3",
  "updatedAt": "2022-02-04T17:45:40.670Z",
  "devdoc": {
    "kind": "dev",
    "methods": {},
    "version": 1
  },
  "userdoc": {
    "kind": "user",
    "methods": {},
    "version": 1
  }
}