{
  "contractName": "Company",
  "abi": [
    {
      "inputs": [],
      "stateMutability": "nonpayable",
      "type": "constructor"
    },
    {
      "anonymous": false,
      "inputs": [
        {
          "indexed": false,
          "internalType": "uint256",
          "name": "companyId",
          "type": "uint256"
        },
        {
          "indexed": false,
          "internalType": "string",
          "name": "name",
          "type": "string"
        },
        {
          "indexed": false,
          "internalType": "address",
          "name": "sender",
          "type": "address"
        }
      ],
      "name": "Dissolved",
      "type": "event"
    },
    {
      "anonymous": false,
      "inputs": [
        {
          "indexed": false,
          "internalType": "uint256",
          "name": "companyId",
          "type": "uint256"
        },
        {
          "indexed": false,
          "internalType": "string",
          "name": "name",
          "type": "string"
        },
        {
          "indexed": false,
          "internalType": "uint256",
          "name": "foundingCapitalGoal",
          "type": "uint256"
        },
        {
          "indexed": false,
          "internalType": "uint256",
          "name": "memberAmount",
          "type": "uint256"
        }
      ],
      "name": "Founded",
      "type": "event"
    },
    {
      "anonymous": false,
      "inputs": [
        {
          "indexed": false,
          "internalType": "uint256",
          "name": "companyId",
          "type": "uint256"
        },
        {
          "indexed": false,
          "internalType": "string",
          "name": "name",
          "type": "string"
        },
        {
          "indexed": false,
          "internalType": "address",
          "name": "sender",
          "type": "address"
        }
      ],
      "name": "Left",
      "type": "event"
    },
    {
      "anonymous": false,
      "inputs": [
        {
          "indexed": false,
          "internalType": "uint256",
          "name": "value",
          "type": "uint256"
        },
        {
          "indexed": false,
          "internalType": "address",
          "name": "sender",
          "type": "address"
        },
        {
          "indexed": false,
          "internalType": "uint256",
          "name": "companyId",
          "type": "uint256"
        }
      ],
      "name": "Received",
      "type": "event"
    },
    {
      "inputs": [
        {
          "internalType": "uint256",
          "name": "",
          "type": "uint256"
        }
      ],
      "name": "company",
      "outputs": [
        {
          "internalType": "string",
          "name": "",
          "type": "string"
        }
      ],
      "stateMutability": "view",
      "type": "function"
    },
    {
      "inputs": [],
      "name": "governance",
      "outputs": [
        {
          "internalType": "address",
          "name": "",
          "type": "address"
        }
      ],
      "stateMutability": "view",
      "type": "function"
    },
    {
      "inputs": [],
      "name": "name",
      "outputs": [
        {
          "internalType": "string",
          "name": "",
          "type": "string"
        }
      ],
      "stateMutability": "view",
      "type": "function"
    },
    {
      "inputs": [
        {
          "internalType": "string",
          "name": "_name",
          "type": "string"
        },
        {
          "internalType": "uint256",
          "name": "_foundingCapitalGoal",
          "type": "uint256"
        },
        {
          "internalType": "uint256",
          "name": "_memberAmount",
          "type": "uint256"
        }
      ],
      "name": "found",
      "outputs": [
        {
          "internalType": "uint256",
          "name": "",
          "type": "uint256"
        }
      ],
      "stateMutability": "nonpayable",
      "type": "function"
    },
    {
      "inputs": [
        {
          "internalType": "uint256",
          "name": "companyId",
          "type": "uint256"
        }
      ],
      "name": "payShare",
      "outputs": [],
      "stateMutability": "payable",
      "type": "function"
    },
    {
      "inputs": [
        {
          "internalType": "uint256",
          "name": "companyId",
          "type": "uint256"
        }
      ],
      "name": "leaveCompany",
      "outputs": [],
      "stateMutability": "nonpayable",
      "type": "function"
    },
    {
      "inputs": [
        {
          "internalType": "uint256",
          "name": "companyId",
          "type": "uint256"
        }
      ],
      "name": "dissolveCompany",
      "outputs": [],
      "stateMutability": "nonpayable",
      "type": "function"
    },
    {
      "inputs": [
        {
          "internalType": "uint256",
          "name": "companyId",
          "type": "uint256"
        }
      ],
      "name": "getMembersById",
      "outputs": [
        {
          "internalType": "address[]",
          "name": "",
          "type": "address[]"
        }
      ],
      "stateMutability": "view",
      "type": "function"
    },
    {
      "inputs": [],
      "name": "getAllCompanies",
      "outputs": [
        {
          "internalType": "string[]",
          "name": "",
          "type": "string[]"
        }
      ],
      "stateMutability": "view",
      "type": "function"
    },
    {
      "inputs": [
        {
          "internalType": "uint256",
          "name": "companyId",
          "type": "uint256"
        }
      ],
      "name": "getCompanyById",
      "outputs": [
        {
          "internalType": "string",
          "name": "",
          "type": "string"
        }
      ],
      "stateMutability": "view",
      "type": "function"
    },
    {
      "inputs": [
        {
          "internalType": "uint256",
          "name": "companyId",
          "type": "uint256"
        }
      ],
      "name": "getCompanyBalanceById",
      "outputs": [
        {
          "internalType": "uint256",
          "name": "",
          "type": "uint256"
        }
      ],
      "stateMutability": "view",
      "type": "function"
    }
  ],
  "bytecode": "0x60c0604052601660808190527f466f756e6420796f7572206f776e20636f6d70616e790000000000000000000060a090815262000040916002919062000067565b503480156200004e57600080fd5b50600080546001600160a01b031916331790556200014a565b82805462000075906200010d565b90600052602060002090601f016020900481019282620000995760008555620000e4565b82601f10620000b457805160ff1916838001178555620000e4565b82800160010185558215620000e4579182015b82811115620000e4578251825591602001919060010190620000c7565b50620000f2929150620000f6565b5090565b5b80821115620000f25760008155600101620000f7565b600181811c908216806200012257607f821691505b602082108114156200014457634e487b7160e01b600052602260045260246000fd5b50919050565b611904806200015a6000396000f3fe60806040526004361061009c5760003560e01c8063751ac34911610064578063751ac34914610174578063804e29ad14610196578063b79c8009146101b6578063c97320a7146101d6578063cce2ece0146101e9578063eacebba31461021657600080fd5b806306fdde03146100a157806334e2ad59146100cc578063408bf4c3146100ec5780635aa6e6751461010e578063624159b814610146575b600080fd5b3480156100ad57600080fd5b506100b6610236565b6040516100c39190611481565b60405180910390f35b3480156100d857600080fd5b506100b66100e7366004611494565b6102c4565b3480156100f857600080fd5b506101016103c3565b6040516100c391906114ad565b34801561011a57600080fd5b5060005461012e906001600160a01b031681565b6040516001600160a01b0390911681526020016100c3565b34801561015257600080fd5b50610166610161366004611494565b61049c565b6040519081526020016100c3565b34801561018057600080fd5b5061019461018f366004611494565b610500565b005b3480156101a257600080fd5b506101946101b1366004611494565b6109fd565b3480156101c257600080fd5b506101666101d1366004611525565b610bfc565b6101946101e4366004611494565b610d99565b3480156101f557600080fd5b50610209610204366004611494565b610ea8565b6040516100c391906115e9565b34801561022257600080fd5b506100b6610231366004611494565b610f69565b6002805461024390611636565b80601f016020809104026020016040519081016040528092919081815260200182805461026f90611636565b80156102bc5780601f10610291576101008083540402835291602001916102bc565b820191906000526020600020905b81548152906001019060200180831161029f57829003601f168201915b505050505081565b6060600b600a60008481526020019081526020016000206040516102e89190611671565b9081526040519081900360200190205460ff1615156001146103255760405162461bcd60e51b815260040161031c906116e3565b60405180910390fd5b6000828152600a60205260409020805461033e90611636565b80601f016020809104026020016040519081016040528092919081815260200182805461036a90611636565b80156103b75780601f1061038c576101008083540402835291602001916103b7565b820191906000526020600020905b81548152906001019060200180831161039a57829003601f168201915b50505050509050919050565b60606001805480602002602001604051908101604052809291908181526020016000905b8282101561049357838290600052602060002001805461040690611636565b80601f016020809104026020016040519081016040528092919081815260200182805461043290611636565b801561047f5780601f106104545761010080835404028352916020019161047f565b820191906000526020600020905b81548152906001019060200180831161046257829003601f168201915b5050505050815260200190600101906103e7565b50505050905090565b6000818152600a60205260408082209051600b916104b991611671565b9081526040519081900360200190205460ff1615156001146104ed5760405162461bcd60e51b815260040161031c906116e3565b506000908152600d602052604090205490565b6001600b600a60008481526020019081526020016000206040516105249190611671565b908152604051908190036020019020805482151560ff199091161790556105865760405162461bcd60e51b815260206004820152601660248201527518dbdb5c185b9e48191bd95cc81b9bdd08195e1a5cdd60521b604482015260640161031c565b60008181526009602090815260408083203384529091529020805460ff191660011790556000818152600a6020526040812080546105c390611636565b80601f01602080910402602001604051908101604052809291908181526020018280546105ef90611636565b801561063c5780601f106106115761010080835404028352916020019161063c565b820191906000526020600020905b81548152906001019060200180831161061f57829003601f168201915b50503360009081526005602052604090206003015493945050505060ff1661069a57336000908152600560209081526040808320600301805460ff191660011790558483526008909152812080549161069483611730565b91905055505b60008281526007602090815260408083205460089092529091205414156109a05760005b6000838152600760205260409020548110156107345760008381526006602052604081208054839081106106f4576106f461174b565b60009182526020822001546001600160a01b031691506107148286610f94565b9050610720828261102c565b8261072a81611730565b93505050506106be565b6000805b6000858152600760205260409020548210156107e957600085815260066020526040902080548390811061076e5761076e61174b565b60009182526020808320909101546001600160a01b031680835260058252604080842080546001600160a01b03191681556001810185905560028101859055600301805460ff1990811690915589855260098452818520838652909352909220805490911690559050816107e181611730565b925050610738565b6000858152600660205260408120610800916111da565b600085815260076020908152604080832083905560088252808320839055600a9091528082209051600b9161083491611671565b9081526040805160209281900383018120805460ff1916941515949094179093558183018082526000808552898152600a909352912091516108779291906111fb565b506000858152600c60209081526040808320839055600d90915281208190556108a29060049061127f565b60005b60015484101561098a576000868152600a602090815260409182902091516108ce929101611671565b60405160208183030381529060405280519060200120600182815481106108f7576108f761174b565b906000526020600020016040516020016109119190611671565b6040516020818303038152906040528051906020012014610978576004600182815481106109415761094161174b565b60009182526020808320845460018101865594845292209101805491909201919061096b90611636565b61097692919061129d565b505b8361098281611730565b9450506108a5565b506004805461099b91600191611318565b505050505b6000828152600660205260409020600380546109bd92919061137a565b507f599eb4c8c87d186305bd4a8dbcc9eddc357ee9e829bbc2e0d2f97aac05c84aba8282336040516109f193929190611761565b60405180910390a15050565b60008181526009602090815260408083203384529091529020805460ff19166001179055600081815260066020526040902054600110610a9d5760405162461bcd60e51b815260206004820152603560248201527f436f6d70616e79206a75737420686173206f6e65206d656d6265722e20506c6560448201527430b9b2903234b9b9b7b63b329021b7b6b830b73c9760591b606482015260840161031c565b33600090815260056020526040902060010154610aef5760405162461bcd60e51b815260206004820152601060248201526f27379039b430b932b9903830bcb2b21760811b604482015260640161031c565b6000610afb3383610f94565b6000838152600d6020526040902054909150610b18908290611792565b6000838152600d6020526040902055610b31338261102c565b33600090815260056020908152604080832080546001600160a01b03191681556001808201859055600282018590556003909101805460ff1916905585845260079092528220805491929091610b88908490611792565b90915550506000828152600960209081526040808320338085529252909120805460ff19169055610bba908390611067565b6000828152600a60205260409081902090517f578c6a515464f9669d547f1b4bd7d83934fc2c3cd0ea43fadc89376d524de5c0916109f19185919033906117a9565b6000600b84604051610c0e919061184c565b9081526040519081900360200190205460ff1615610c675760405162461bcd60e51b8152602060048201526016602482015275436f6d70616e7920616c72656164792065786973747360501b604482015260640161031c565b6001805480820182556000919091528451610ca9917fb10e2d527612073b26eecdfd717e6a320cf44b4afac2b0732d9fcbe2b7fa0cf6019060208701906111fb565b5060018054600091610cba91611792565b6000818152600a602090815260409091208751929350610cde9290918801906111fb565b506000818152600760209081526040808320869055600c8252808320879055600d9091528082209190915551600190600b90610d1b90889061184c565b9081526040805160209281900383019020805460ff1916931515939093179092556000838152600890915290812055610d543382611162565b7fa23153e0aa97e342ddf43ef137344681c051370a794dc94caecf818bf633c7d681868686604051610d899493929190611868565b60405180910390a1949350505050565b600081815260076020908152604080832054600c90925290912054610dbe9190611894565b341015610e035760405162461bcd60e51b81526020600482015260136024820152720ecc2d8eaca40d2e640dcdee840cadcdeeaced606b1b604482015260640161031c565b336000908152600560205260409020546001600160a01b0316610e2a57610e2a3382611162565b336000908152600560209081526040808320346001909101819055848452600d9092528220805491929091610e609084906118b6565b9091555050604080513481523360208201529081018290527fdb4180dac917b30af1e3b7cd73c7a8ae35b1838cb62ffcf24e2b6cc47bd732489060600160405180910390a150565b6060600b600a6000848152602001908152602001600020604051610ecc9190611671565b9081526040519081900360200190205460ff161515600114610f005760405162461bcd60e51b815260040161031c906116e3565b600082815260066020908152604091829020805483518184028101840190945280845290918301828280156103b757602002820191906000526020600020905b81546001600160a01b03168152600190910190602001808311610f405750505050509050919050565b60018181548110610f7957600080fd5b90600052602060002001600091509050805461024390611636565b600081815260076020908152604080832054600d9092528220548291610fb991611894565b6001600160a01b0385166000908152600560205260409020600101541015610ffd57506001600160a01b038316600090815260056020526040902060010154611025565b600083815260076020908152604080832054600d909252909120546110229190611894565b90505b9392505050565b6040516001600160a01b0383169082156108fc029083906000818181858888f19350505050158015611062573d6000803e3d6000fd5b505050565b611073600360006111da565b60005b60008381526006602052604090205481101561114457600083815260066020526040902080546001600160a01b0384169190839081106110b8576110b861174b565b6000918252602090912001546001600160a01b031614611132576000838152600660205260409020805460039190839081106110f6576110f661174b565b60009182526020808320909101548354600181018555938352912090910180546001600160a01b0319166001600160a01b039092169190911790555b8061113c81611730565b915050611076565b5060008281526006602052604090206003805461106292919061137a565b6001600160a01b03909116600081815260056020908152604080832080546001600160a01b03199081168617825560029091018690558584526006835281842080546001818101835591865284862001805490921686179091559483526009825280832093835292905220805460ff19169091179055565b50805460008255906000526020600020908101906111f891906113b9565b50565b82805461120790611636565b90600052602060002090601f016020900481019282611229576000855561126f565b82601f1061124257805160ff191683800117855561126f565b8280016001018555821561126f579182015b8281111561126f578251825591602001919060010190611254565b5061127b9291506113b9565b5090565b50805460008255906000526020600020908101906111f891906113ce565b8280546112a990611636565b90600052602060002090601f0160209004810192826112cb576000855561126f565b82601f106112dc578054855561126f565b8280016001018555821561126f57600052602060002091601f016020900482015b8281111561126f5782548255916001019190600101906112fd565b82805482825590600052602060002090810192821561136e5760005260206000209182015b8281111561136e57828290805461135390611636565b61135e92919061129d565b509160010191906001019061133d565b5061127b9291506113ce565b82805482825590600052602060002090810192821561126f5760005260206000209182018281111561126f5782548255916001019190600101906112fd565b5b8082111561127b57600081556001016113ba565b8082111561127b5760006113e282826113eb565b506001016113ce565b5080546113f790611636565b6000825580601f10611407575050565b601f0160209004906000526020600020908101906111f891906113b9565b60005b83811015611440578181015183820152602001611428565b8381111561144f576000848401525b50505050565b6000815180845261146d816020860160208601611425565b601f01601f19169290920160200192915050565b6020815260006110256020830184611455565b6000602082840312156114a657600080fd5b5035919050565b6000602080830181845280855180835260408601915060408160051b870101925083870160005b8281101561150257603f198886030184526114f0858351611455565b945092850192908501906001016114d4565b5092979650505050505050565b634e487b7160e01b600052604160045260246000fd5b60008060006060848603121561153a57600080fd5b833567ffffffffffffffff8082111561155257600080fd5b818601915086601f83011261156657600080fd5b8135818111156115785761157861150f565b604051601f8201601f19908116603f011681019083821181831017156115a0576115a061150f565b816040528281528960208487010111156115b957600080fd5b82602086016020830137600060208483010152809750505050505060208401359150604084013590509250925092565b6020808252825182820181905260009190848201906040850190845b8181101561162a5783516001600160a01b031683529284019291840191600101611605565b50909695505050505050565b600181811c9082168061164a57607f821691505b6020821081141561166b57634e487b7160e01b600052602260045260246000fd5b50919050565b600080835461167f81611636565b6001828116801561169757600181146116a8576116d7565b60ff198416875282870194506116d7565b8760005260208060002060005b858110156116ce5781548a8201529084019082016116b5565b50505082870194505b50929695505050505050565b60208082526017908201527f6e6f20636f6d70616e7920776974682074686973204944000000000000000000604082015260600190565b634e487b7160e01b600052601160045260246000fd5b60006000198214156117445761174461171a565b5060010190565b634e487b7160e01b600052603260045260246000fd5b83815260606020820152600061177a6060830185611455565b905060018060a01b0383166040830152949350505050565b6000828210156117a4576117a461171a565b500390565b83815260006020606081840152600085546117c381611636565b80606087015260806001808416600081146117e557600181146117f957611827565b60ff1985168984015260a089019550611827565b8a6000528660002060005b8581101561181f5781548b8201860152908301908801611804565b8a0184019650505b505050506001600160a01b03861660408601525091506118449050565b949350505050565b6000825161185e818460208701611425565b9190910192915050565b8481526080602082015260006118816080830186611455565b6040830194909452506060015292915050565b6000826118b157634e487b7160e01b600052601260045260246000fd5b500490565b600082198211156118c9576118c961171a565b50019056fea26469706673582212202e3a1946f9661070863bbf4dbfcb811842469d8d9af48047c4b7f12757dc36d664736f6c634300080a0033",
  "immutableReferences": {},
  "source": "// SPDX-License-Identifier: MIT\npragma solidity 0.8.10;\n\n\ncontract Company {\n\n    ///////////////////////////\n    /////////CONSTRUCTOR///////\n    ///////////////////////////\n\n    constructor(){\n        //governance = governance_;\n        governance = msg.sender;\n    }\n\n\n    ///////////////////////////\n    /////////VARIABLES/////////\n    ///////////////////////////\n\n    //owner of contract\n    address public governance;\n    string[] public company;\n    string public name = \"Found your own company\";\n\n    // neded because it is not possible to create a replaceArray in memory\n    // it is used in function removeFromMemberAddresses() to remove an address from a companyAddress Array\n    address[] private replaceArray;\n    string[] private replaceArrayCompany;\n\n    //every Member of a company is a shareholder\n    // a member consists of address, amount of coins investested and boolean for polling if company should be dissolved\n    struct Member{\n        address member;\n        uint256 amount; //payed amount per member\n        uint256 companyId;\n        bool wantDissolveCompany;\n    }\n\n\n    ///////////////////////////\n    /////////MAPPINGS//////////\n    ///////////////////////////\n\n    //company and member specific\n    mapping(address => Member) internal addressMember; //map address to the member\n    mapping(uint256 => address[]) internal memberAddresses; //map companyId to list of memberAddresses\n    mapping(uint256 => uint256) internal memberAmount; // map amount companyId to amount of members\n    mapping(uint256 => uint256) internal amountWantDissolveCompany; //map companyId to amount of members who want to dissolve the company\n\n    //memberregister\n    mapping(uint256 => mapping(address => bool)) memberOfCertainCompany; //member of a certain company\n\n    //companyregister\n    mapping(uint256 => string) internal names; // map company id to name of company\n    mapping(string => bool) internal companyExists; //map company name to bool\n\n    //companycapitalrelated\n    mapping(uint256 => uint256) internal foundingCapitalGoal; //starting capital per companyId\n    mapping(uint256 => uint256) internal payedCapital; //payedCapital per company\n\n\n    ///////////////////////////\n    /////////EVENTS////////////\n    ///////////////////////////\n\n    event Received(uint256 value, address sender, uint256 companyId); //event for confirmation of paying a share to company\n    event Founded(uint256 companyId, string name, uint256 foundingCapitalGoal, uint256 memberAmount); // event of confirmation of a founded company\n    event Dissolved(uint256 companyId, string name, address sender); //event of confirmation of a dissolved company\n    event Left(uint256 companyId, string name, address sender); //event of confirmation that a user left a company\n\n\n    ///////////////////////////\n    /////////FUNCTIONS/////////\n    ///////////////////////////\n\n    function found(string memory _name, uint256 _foundingCapitalGoal, uint256 _memberAmount) external returns (uint256) {\n        require(!companyExists[_name], 'Company already exists');\n        // keine Namenssperre vorhanden?\n\n        //company anlegen\n        company.push(_name);\n        uint256 companyId = company.length -1;\n        names[companyId] = _name;\n        memberAmount[companyId] = _memberAmount;\n        foundingCapitalGoal[companyId] = _foundingCapitalGoal;\n        payedCapital[companyId] = 0;\n        companyExists[_name] = true;\n        amountWantDissolveCompany[companyId]=0;\n\n        //msg.sender is first founder\n        createMember(msg.sender, companyId);\n        emit Founded(companyId, _name, _foundingCapitalGoal, _memberAmount);\n        return companyId;\n    }\n\n\n    function createMember(address newAddress , uint256 companyId) internal {\n        addressMember[newAddress].member = newAddress;\n        addressMember[newAddress].companyId = companyId;\n        memberAddresses[companyId].push(newAddress);\n        memberOfCertainCompany[companyId][newAddress] = true;\n    }\n\n\n    function payShare(uint256 companyId) external payable {\n        // external means less gas fees\n        // value needs to be more than expected companyfoundingcapital devided by amount of founders\n        require(msg.value >= foundingCapitalGoal[companyId]/memberAmount[companyId], 'value is not enough');\n\n        //if member is new, create member and assign to company\n        if (addressMember[msg.sender].member == address(0x0)){\n            createMember(msg.sender, companyId);\n        }\n        //save payed amount in correct member\n        addressMember[msg.sender].amount = msg.value;\n        payedCapital[companyId] += msg.value;\n\n        emit Received(msg.value, msg.sender, companyId);\n    }\n\n\n    function leaveCompany(uint256 companyId) external  {\n        //check, if user is part of the company\n        require(memberOfCertainCompany[companyId][msg.sender] = true, 'Address is not member of the company.');\n        //check, if company has more than one member\n        require(memberAddresses[companyId].length >1, 'Company just has one member. Please dissolve Company.');\n        //if member did not pay any share, one can not leave the company\n        require(addressMember[msg.sender].amount > 0, 'No shares payed.');\n\n        //calculate the retun amount\n        uint256 returnMoney = calcReturnAmount(msg.sender, companyId);\n        //if payed amount is smaller than part of payedcapital --> return amount payed, else return part of capital\n        payedCapital[companyId] = payedCapital[companyId] - returnMoney;\n        transfer(payable(msg.sender), returnMoney); //msg.sender needs to be casted to payable to receive ETH\n\n        //remove address from all mappings\n        delete addressMember[msg.sender];\n        memberAmount[companyId] -= 1;\n        memberOfCertainCompany[companyId][msg.sender] = false;\n        removeFromMemberAddresses(companyId, msg.sender);\n        emit Left(companyId, names[companyId], msg.sender);\n    }\n\n\n    //internal function to calculate the return amount\n    function calcReturnAmount(address returnAddress, uint256 companyId) internal view returns(uint256){\n        uint256 returnMoney = 0;\n        if (addressMember[returnAddress].amount < payedCapital[companyId]/memberAmount[companyId]){\n            returnMoney =  addressMember[returnAddress].amount;\n        } else {\n            returnMoney = payedCapital[companyId]/memberAmount[companyId];\n        }\n        return returnMoney;\n    }\n\n\n    //internal function to remove the address from mapping array\n    function removeFromMemberAddresses(uint256 companyId, address removeAddress) internal {\n        //search position of address in array\n        delete replaceArray ;\n        for(uint i = 0; i <  memberAddresses[companyId].length; i++) {\n            if (memberAddresses[companyId][i] != removeAddress){\n                replaceArray.push(memberAddresses[companyId][i]);\n            }\n        }\n        memberAddresses[companyId] = replaceArray;\n    }\n\n\n    //transfer function\n    function transfer(address payable to, uint256 amount) internal {\n        to.transfer(amount);\n    }\n\n\n    //every of the members need to run this function\n    function dissolveCompany(uint256 companyId) public {\n        require(companyExists[names[companyId]] = true, 'company does not exist');\n        require(memberOfCertainCompany[companyId][msg.sender] = true, 'Address is not member of the company.');\n        string memory companyName = names[companyId];\n\n        //check, if address which runs this function is the last one to give permission to solve the company\n        if (addressMember[msg.sender].wantDissolveCompany == false){\n            addressMember[msg.sender].wantDissolveCompany = true;\n            amountWantDissolveCompany[companyId]++;\n        }\n        //return all left money\n        if (amountWantDissolveCompany[companyId] == memberAmount[companyId]){\n            uint256 i = 0;\n            while (i < memberAmount[companyId]){ //array starts from 0\n                address returnAddress = memberAddresses[companyId][i];\n                uint256 returnAmount = calcReturnAmount(returnAddress, companyId);\n                transfer(payable(returnAddress), returnAmount);\n                i++;\n            }\n\n            // delete all memberData\n            uint256 j = 0;\n            address deleteMember;\n            while (j< memberAmount[companyId]){\n                deleteMember = memberAddresses[companyId][j];\n                delete addressMember[deleteMember];\n                memberOfCertainCompany[companyId][deleteMember] = false;\n                j++;\n            }\n            //delete all members of the one company\n            delete memberAddresses[companyId];\n            //set memberAmount to 0 of this company\n            memberAmount[companyId] = 0;\n            amountWantDissolveCompany[companyId] = 0;\n\n            //delete company\n            companyExists[names[companyId]] = false;\n            names[companyId] = '';\n            foundingCapitalGoal[companyId] = 0;\n            payedCapital[companyId] = 0;\n\n            //delete company from nameRegister\n            delete replaceArrayCompany ;\n            for(uint k = 0; i <  company.length; i++) {\n                if ((keccak256(abi.encodePacked((company[k]))) != keccak256(abi.encodePacked((names[companyId]))))){\n                    replaceArrayCompany.push(company[k]);\n                }\n            }\n            company = replaceArrayCompany;\n        }\n        memberAddresses[companyId] = replaceArray;\n\n        emit Dissolved(companyId, companyName, msg.sender);\n    }\n\n    //returns memberAddresses based on companyId\n    function getMembersById(uint256 companyId) external view returns  (address[] memory) {\n        require(companyExists[names[companyId]] == true, \"no company with this ID\");\n        return(memberAddresses[companyId]);\n    }\n\n    function getAllCompanies() external view returns (string[] memory) {\n        return company;\n    }\n\n    //returns companyName based on companyId\n    function getCompanyById(uint256 companyId) external view returns (string memory) {\n        require(companyExists[names[companyId]] == true, \"no company with this ID\");\n        return names[companyId];\n    }\n\n    //returns companyBalance based on companyId\n    function getCompanyBalanceById(uint256 companyId) external view returns (uint256) {\n        require(companyExists[names[companyId]] == true, \"no company with this ID\");\n        return payedCapital[companyId];\n    }\n\n}",
  "sourcePath": "/Users/felixwilberg/code/found_company/src/contracts/Company.sol",
  "compiler": {
    "name": "solc",
    "version": "0.8.10+commit.fc410830.Emscripten.clang"
  },
  "schemaVersion": "3.4.3",
  "updatedAt": "2022-02-09T09:41:03.202Z",
  "devdoc": {
    "kind": "dev",
    "methods": {},
    "version": 1
  },
  "userdoc": {
    "kind": "user",
    "methods": {},
    "version": 1
  }
}