{
  "contractName": "Company",
  "abi": [
    {
      "inputs": [],
      "stateMutability": "nonpayable",
      "type": "constructor"
    },
    {
      "anonymous": false,
      "inputs": [
        {
          "indexed": false,
          "internalType": "uint256",
          "name": "companyId",
          "type": "uint256"
        },
        {
          "indexed": false,
          "internalType": "string",
          "name": "name",
          "type": "string"
        },
        {
          "indexed": false,
          "internalType": "address",
          "name": "sender",
          "type": "address"
        }
      ],
      "name": "Dissolved",
      "type": "event"
    },
    {
      "anonymous": false,
      "inputs": [
        {
          "indexed": false,
          "internalType": "uint256",
          "name": "companyId",
          "type": "uint256"
        },
        {
          "indexed": false,
          "internalType": "string",
          "name": "name",
          "type": "string"
        },
        {
          "indexed": false,
          "internalType": "uint256",
          "name": "foundingCapitalGoal",
          "type": "uint256"
        },
        {
          "indexed": false,
          "internalType": "uint256",
          "name": "memberAmount",
          "type": "uint256"
        }
      ],
      "name": "Founded",
      "type": "event"
    },
    {
      "anonymous": false,
      "inputs": [
        {
          "indexed": false,
          "internalType": "uint256",
          "name": "companyId",
          "type": "uint256"
        },
        {
          "indexed": false,
          "internalType": "string",
          "name": "name",
          "type": "string"
        },
        {
          "indexed": false,
          "internalType": "address",
          "name": "sender",
          "type": "address"
        }
      ],
      "name": "Left",
      "type": "event"
    },
    {
      "anonymous": false,
      "inputs": [
        {
          "indexed": false,
          "internalType": "uint256",
          "name": "value",
          "type": "uint256"
        },
        {
          "indexed": false,
          "internalType": "address",
          "name": "sender",
          "type": "address"
        },
        {
          "indexed": false,
          "internalType": "uint256",
          "name": "companyId",
          "type": "uint256"
        }
      ],
      "name": "Received",
      "type": "event"
    },
    {
      "inputs": [
        {
          "internalType": "uint256",
          "name": "",
          "type": "uint256"
        }
      ],
      "name": "company",
      "outputs": [
        {
          "internalType": "string",
          "name": "",
          "type": "string"
        }
      ],
      "stateMutability": "view",
      "type": "function"
    },
    {
      "inputs": [],
      "name": "governance",
      "outputs": [
        {
          "internalType": "address",
          "name": "",
          "type": "address"
        }
      ],
      "stateMutability": "view",
      "type": "function"
    },
    {
      "inputs": [],
      "name": "name",
      "outputs": [
        {
          "internalType": "string",
          "name": "",
          "type": "string"
        }
      ],
      "stateMutability": "view",
      "type": "function"
    },
    {
      "inputs": [
        {
          "internalType": "string",
          "name": "_name",
          "type": "string"
        },
        {
          "internalType": "uint256",
          "name": "_foundingCapitalGoal",
          "type": "uint256"
        },
        {
          "internalType": "uint256",
          "name": "_memberAmount",
          "type": "uint256"
        }
      ],
      "name": "found",
      "outputs": [
        {
          "internalType": "uint256",
          "name": "",
          "type": "uint256"
        }
      ],
      "stateMutability": "nonpayable",
      "type": "function"
    },
    {
      "inputs": [
        {
          "internalType": "uint256",
          "name": "companyId",
          "type": "uint256"
        }
      ],
      "name": "payShare",
      "outputs": [],
      "stateMutability": "payable",
      "type": "function"
    },
    {
      "inputs": [
        {
          "internalType": "uint256",
          "name": "companyId",
          "type": "uint256"
        }
      ],
      "name": "leaveCompany",
      "outputs": [],
      "stateMutability": "nonpayable",
      "type": "function"
    },
    {
      "inputs": [
        {
          "internalType": "uint256",
          "name": "companyId",
          "type": "uint256"
        }
      ],
      "name": "dissolveCompany",
      "outputs": [],
      "stateMutability": "nonpayable",
      "type": "function"
    },
    {
      "inputs": [
        {
          "internalType": "uint256",
          "name": "companyId",
          "type": "uint256"
        }
      ],
      "name": "getMembersById",
      "outputs": [
        {
          "internalType": "address[]",
          "name": "",
          "type": "address[]"
        }
      ],
      "stateMutability": "view",
      "type": "function"
    },
    {
      "inputs": [],
      "name": "getAllCompanies",
      "outputs": [
        {
          "internalType": "string[]",
          "name": "",
          "type": "string[]"
        }
      ],
      "stateMutability": "view",
      "type": "function"
    },
    {
      "inputs": [
        {
          "internalType": "uint256",
          "name": "companyId",
          "type": "uint256"
        }
      ],
      "name": "getCompanyById",
      "outputs": [
        {
          "internalType": "string",
          "name": "",
          "type": "string"
        }
      ],
      "stateMutability": "view",
      "type": "function"
    },
    {
      "inputs": [
        {
          "internalType": "uint256",
          "name": "companyId",
          "type": "uint256"
        }
      ],
      "name": "getCompanyBalanceById",
      "outputs": [
        {
          "internalType": "uint256",
          "name": "",
          "type": "uint256"
        }
      ],
      "stateMutability": "view",
      "type": "function"
    },
    {
      "inputs": [],
      "name": "getBalanceOfContract",
      "outputs": [
        {
          "internalType": "uint256",
          "name": "",
          "type": "uint256"
        }
      ],
      "stateMutability": "view",
      "type": "function"
    }
  ],
  "bytecode": "0x60c0604052601660808190527f466f756e6420796f7572206f776e20636f6d70616e790000000000000000000060a090815262000040916002919062000067565b503480156200004e57600080fd5b50600080546001600160a01b031916331790556200014a565b82805462000075906200010d565b90600052602060002090601f016020900481019282620000995760008555620000e4565b82601f10620000b457805160ff1916838001178555620000e4565b82800160010185558215620000e4579182015b82811115620000e4578251825591602001919060010190620000c7565b50620000f2929150620000f6565b5090565b5b80821115620000f25760008155600101620000f7565b600181811c908216806200012257607f821691505b602082108114156200014457634e487b7160e01b600052602260045260246000fd5b50919050565b61169b806200015a6000396000f3fe6080604052600436106100a75760003560e01c8063751ac34911610064578063751ac3491461018e578063804e29ad146101b0578063b79c8009146101d0578063c97320a7146101f0578063cce2ece014610203578063eacebba31461023057600080fd5b806306fdde03146100ac57806322968885146100d757806334e2ad59146100f4578063408bf4c3146101145780635aa6e67514610136578063624159b81461016e575b600080fd5b3480156100b857600080fd5b506100c1610250565b6040516100ce9190611218565b60405180910390f35b3480156100e357600080fd5b50475b6040519081526020016100ce565b34801561010057600080fd5b506100c161010f36600461122b565b6102de565b34801561012057600080fd5b506101296103dd565b6040516100ce9190611244565b34801561014257600080fd5b50600054610156906001600160a01b031681565b6040516001600160a01b0390911681526020016100ce565b34801561017a57600080fd5b506100e661018936600461122b565b6104b6565b34801561019a57600080fd5b506101ae6101a936600461122b565b61051a565b005b3480156101bc57600080fd5b506101ae6101cb36600461122b565b6108f1565b3480156101dc57600080fd5b506100e66101eb3660046112bc565b610af0565b6101ae6101fe36600461122b565b610c8d565b34801561020f57600080fd5b5061022361021e36600461122b565b610d9c565b6040516100ce9190611380565b34801561023c57600080fd5b506100c161024b36600461122b565b610e5d565b6002805461025d906113cd565b80601f0160208091040260200160405190810160405280929190818152602001828054610289906113cd565b80156102d65780601f106102ab576101008083540402835291602001916102d6565b820191906000526020600020905b8154815290600101906020018083116102b957829003601f168201915b505050505081565b6060600a600960008481526020019081526020016000206040516103029190611408565b9081526040519081900360200190205460ff16151560011461033f5760405162461bcd60e51b81526004016103369061147a565b60405180910390fd5b60008281526009602052604090208054610358906113cd565b80601f0160208091040260200160405190810160405280929190818152602001828054610384906113cd565b80156103d15780601f106103a6576101008083540402835291602001916103d1565b820191906000526020600020905b8154815290600101906020018083116103b457829003601f168201915b50505050509050919050565b60606001805480602002602001604051908101604052809291908181526020016000905b828210156104ad578382906000526020600020018054610420906113cd565b80601f016020809104026020016040519081016040528092919081815260200182805461044c906113cd565b80156104995780601f1061046e57610100808354040283529160200191610499565b820191906000526020600020905b81548152906001019060200180831161047c57829003601f168201915b505050505081526020019060010190610401565b50505050905090565b6000818152600960205260408082209051600a916104d391611408565b9081526040519081900360200190205460ff1615156001146105075760405162461bcd60e51b81526004016103369061147a565b506000908152600c602052604090205490565b6001600a6009600084815260200190815260200160002060405161053e9190611408565b908152604051908190036020019020805482151560ff199091161790556105a05760405162461bcd60e51b815260206004820152601660248201527518dbdb5c185b9e48191bd95cc81b9bdd08195e1a5cdd60521b6044820152606401610336565b60008181526008602090815260408083203384529091529020805460ff19166001179055600081815260096020526040812080546105dd906113cd565b80601f0160208091040260200160405190810160405280929190818152602001828054610609906113cd565b80156106565780601f1061062b57610100808354040283529160200191610656565b820191906000526020600020905b81548152906001019060200180831161063957829003601f168201915b50503360009081526004602052604090206003015493945050505060ff166106b457336000908152600460209081526040808320600301805460ff19166001179055848352600790915281208054916106ae836114c7565b91905055505b60008281526006602090815260408083205460079092529091205414156108b25760005b60008381526006602052604090205481101561074e57600083815260056020526040812080548390811061070e5761070e6114e2565b60009182526020822001546001600160a01b0316915061072e8286610e88565b905061073a8282610f20565b82610744816114c7565b93505050506106d8565b6000805b600085815260066020526040902054821015610803576000858152600560205260409020805483908110610788576107886114e2565b60009182526020808320909101546001600160a01b031680835260048252604080842080546001600160a01b03191681556001810185905560028101859055600301805460ff1990811690915589855260088452818520838652909352909220805490911690559050816107fb816114c7565b925050610752565b600085815260056020526040812061081a916110c2565b60008581526006602090815260408083208390556007825280832083905560099091528082209051600a9161084e91611408565b9081526040805160209281900383018120805460ff19169415159490941790935581830180825260008085528981526009909352912091516108919291906110e3565b5050506000838152600b60209081526040808320839055600c909152812055505b7f599eb4c8c87d186305bd4a8dbcc9eddc357ee9e829bbc2e0d2f97aac05c84aba8282336040516108e5939291906114f8565b60405180910390a15050565b60008181526008602090815260408083203384529091529020805460ff191660011790556000818152600560205260409020546001106109915760405162461bcd60e51b815260206004820152603560248201527f436f6d70616e79206a75737420686173206f6e65206d656d6265722e20506c6560448201527430b9b2903234b9b9b7b63b329021b7b6b830b73c9760591b6064820152608401610336565b336000908152600460205260409020600101546109e35760405162461bcd60e51b815260206004820152601060248201526f27379039b430b932b9903830bcb2b21760811b6044820152606401610336565b60006109ef3383610e88565b6000838152600c6020526040902054909150610a0c908290611529565b6000838152600c6020526040902055610a253382610f20565b33600090815260046020908152604080832080546001600160a01b03191681556001808201859055600282018590556003909101805460ff1916905585845260069092528220805491929091610a7c908490611529565b90915550506000828152600860209081526040808320338085529252909120805460ff19169055610aae908390610f5b565b6000828152600960205260409081902090517f578c6a515464f9669d547f1b4bd7d83934fc2c3cd0ea43fadc89376d524de5c0916108e5918591903390611540565b6000600a84604051610b0291906115e3565b9081526040519081900360200190205460ff1615610b5b5760405162461bcd60e51b8152602060048201526016602482015275436f6d70616e7920616c72656164792065786973747360501b6044820152606401610336565b6001805480820182556000919091528451610b9d917fb10e2d527612073b26eecdfd717e6a320cf44b4afac2b0732d9fcbe2b7fa0cf6019060208701906110e3565b5060018054600091610bae91611529565b60008181526009602090815260409091208751929350610bd29290918801906110e3565b506000818152600660209081526040808320869055600b8252808320879055600c9091528082209190915551600190600a90610c0f9088906115e3565b9081526040805160209281900383019020805460ff1916931515939093179092556000838152600790915290812055610c48338261104a565b7fa23153e0aa97e342ddf43ef137344681c051370a794dc94caecf818bf633c7d681868686604051610c7d94939291906115ff565b60405180910390a1949350505050565b600081815260066020908152604080832054600b90925290912054610cb2919061162b565b341015610cf75760405162461bcd60e51b81526020600482015260136024820152720ecc2d8eaca40d2e640dcdee840cadcdeeaced606b1b6044820152606401610336565b336000908152600460205260409020546001600160a01b0316610d1e57610d1e338261104a565b336000908152600460209081526040808320346001909101819055848452600c9092528220805491929091610d5490849061164d565b9091555050604080513481523360208201529081018290527fdb4180dac917b30af1e3b7cd73c7a8ae35b1838cb62ffcf24e2b6cc47bd732489060600160405180910390a150565b6060600a60096000848152602001908152602001600020604051610dc09190611408565b9081526040519081900360200190205460ff161515600114610df45760405162461bcd60e51b81526004016103369061147a565b600082815260056020908152604091829020805483518184028101840190945280845290918301828280156103d157602002820191906000526020600020905b81546001600160a01b03168152600190910190602001808311610e345750505050509050919050565b60018181548110610e6d57600080fd5b90600052602060002001600091509050805461025d906113cd565b600081815260066020908152604080832054600c9092528220548291610ead9161162b565b6001600160a01b0385166000908152600460205260409020600101541015610ef157506001600160a01b038316600090815260046020526040902060010154610f19565b600083815260066020908152604080832054600c90925290912054610f16919061162b565b90505b9392505050565b6040516001600160a01b0383169082156108fc029083906000818181858888f19350505050158015610f56573d6000803e3d6000fd5b505050565b60005b60008381526005602052604090205481101561102c57600083815260056020526040902080546001600160a01b038416919083908110610fa057610fa06114e2565b6000918252602090912001546001600160a01b03161461101a57600083815260056020526040902080546003919083908110610fde57610fde6114e2565b60009182526020808320909101548354600181018555938352912090910180546001600160a01b0319166001600160a01b039092169190911790555b80611024816114c7565b915050610f5e565b50600082815260056020526040902060038054610f56929190611167565b6001600160a01b03909116600081815260046020908152604080832080546001600160a01b03199081168617825560029091018690558584526005835281842080546001818101835591865284862001805490921686179091559483526008825280832093835292905220805460ff19169091179055565b50805460008255906000526020600020908101906110e091906111a7565b50565b8280546110ef906113cd565b90600052602060002090601f0160209004810192826111115760008555611157565b82601f1061112a57805160ff1916838001178555611157565b82800160010185558215611157579182015b8281111561115757825182559160200191906001019061113c565b506111639291506111a7565b5090565b8280548282559060005260206000209081019282156111575760005260206000209182015b8281111561115757825482559160010191906001019061118c565b5b8082111561116357600081556001016111a8565b60005b838110156111d75781810151838201526020016111bf565b838111156111e6576000848401525b50505050565b600081518084526112048160208601602086016111bc565b601f01601f19169290920160200192915050565b602081526000610f1960208301846111ec565b60006020828403121561123d57600080fd5b5035919050565b6000602080830181845280855180835260408601915060408160051b870101925083870160005b8281101561129957603f198886030184526112878583516111ec565b9450928501929085019060010161126b565b5092979650505050505050565b634e487b7160e01b600052604160045260246000fd5b6000806000606084860312156112d157600080fd5b833567ffffffffffffffff808211156112e957600080fd5b818601915086601f8301126112fd57600080fd5b81358181111561130f5761130f6112a6565b604051601f8201601f19908116603f01168101908382118183101715611337576113376112a6565b8160405282815289602084870101111561135057600080fd5b82602086016020830137600060208483010152809750505050505060208401359150604084013590509250925092565b6020808252825182820181905260009190848201906040850190845b818110156113c15783516001600160a01b03168352928401929184019160010161139c565b50909695505050505050565b600181811c908216806113e157607f821691505b6020821081141561140257634e487b7160e01b600052602260045260246000fd5b50919050565b6000808354611416816113cd565b6001828116801561142e576001811461143f5761146e565b60ff1984168752828701945061146e565b8760005260208060002060005b858110156114655781548a82015290840190820161144c565b50505082870194505b50929695505050505050565b60208082526017908201527f6e6f20636f6d70616e7920776974682074686973204944000000000000000000604082015260600190565b634e487b7160e01b600052601160045260246000fd5b60006000198214156114db576114db6114b1565b5060010190565b634e487b7160e01b600052603260045260246000fd5b83815260606020820152600061151160608301856111ec565b905060018060a01b0383166040830152949350505050565b60008282101561153b5761153b6114b1565b500390565b838152600060206060818401526000855461155a816113cd565b806060870152608060018084166000811461157c5760018114611590576115be565b60ff1985168984015260a0890195506115be565b8a6000528660002060005b858110156115b65781548b820186015290830190880161159b565b8a0184019650505b505050506001600160a01b03861660408601525091506115db9050565b949350505050565b600082516115f58184602087016111bc565b9190910192915050565b84815260806020820152600061161860808301866111ec565b6040830194909452506060015292915050565b60008261164857634e487b7160e01b600052601260045260246000fd5b500490565b60008219821115611660576116606114b1565b50019056fea2646970667358221220d2b306bcd0b552c38ea1ba97afd60fe7fe517c71102fcf72c66b147f6424688464736f6c634300080a0033",
  "immutableReferences": {},
  "source": "// SPDX-License-Identifier: MIT\npragma solidity 0.8.10;\n\n\ncontract Company {\n\n    ///////////////////////////\n    /////////CONSTRUCTOR///////\n    ///////////////////////////\n\n    constructor(){\n        //governance = governance_;\n        governance = msg.sender;\n    }\n\n    ///////////////////////////\n    /////////VARIABLES/////////\n    ///////////////////////////\n\n    //owner of contract\n    address public governance;\n    string[] public company;\n    string public name = \"Found your own company\";\n\n    // neded because it is not possible to create a replaceArray in memory\n    // it is used in function removeFromMemberAddresses() to remove an address from a companyAddress Array\n    address[] private replaceArray;\n\n\n    //every Member of a company is a shareholder\n    // a member consists of address, amount of coins investested and boolean for polling if company should be dissolved\n    struct Member{\n        address member;\n        uint256 amount; //payed amount per member\n        uint256 companyId;\n        bool wantDissolveCompany;\n    }\n\n\n\n    ///////////////////////////\n    /////////MAPPINGS//////////\n    ///////////////////////////\n\n    //company and member specific\n    mapping(address => Member) internal addressMember; //map address to the member\n    mapping(uint256 => address[]) internal memberAddresses; //map companyId to list of memberAddresses\n    mapping(uint256 => uint256) internal memberAmount; // map amount companyId to amount of members\n    mapping(uint256 => uint256) internal amountWantDissolveCompany; //map companyId to amount of members who want to dissolve the company\n\n    //memberregister\n    mapping(uint256 => mapping(address => bool)) memberOfCertainCompany; //member of a certain company\n\n    //companyregister\n    mapping(uint256 => string) internal names; // map company id to name of company\n    mapping(string => bool) internal companyExists; //map company name to bool\n\n    //companycapitalrelated\n    mapping(uint256 => uint256) internal foundingCapitalGoal; //starting capital per companyId\n    mapping(uint256 => uint256) internal payedCapital; //payedCapital per company\n\n\n    ///////////////////////////\n    /////////EVENTS////////////\n    ///////////////////////////\n\n    event Received(uint256 value, address sender, uint256 companyId); //event for confirmation of paying a share to company\n    event Founded(uint256 companyId, string name, uint256 foundingCapitalGoal, uint256 memberAmount); // event of confirmation of a founded company\n    event Dissolved(uint256 companyId, string name, address sender); //event of confirmation of a dissolved company\n    event Left(uint256 companyId, string name, address sender); //event of confirmation that a user left a company\n\n\n    ///////////////////////////\n    /////////FUNCTIONS/////////\n    ///////////////////////////\n\n    function found(string memory _name, uint256 _foundingCapitalGoal, uint256 _memberAmount) external returns (uint256) {\n        require(!companyExists[_name], 'Company already exists');\n        // keine Namenssperre vorhanden?\n\n        //company anlegen\n        company.push(_name);\n        uint256 companyId = company.length -1;\n        names[companyId] = _name;\n        memberAmount[companyId] = _memberAmount;\n        foundingCapitalGoal[companyId] = _foundingCapitalGoal;\n        payedCapital[companyId] = 0;\n        companyExists[_name] = true;\n        amountWantDissolveCompany[companyId]=0;\n\n        //msg.sender is first founder\n        createMember(msg.sender, companyId);\n        emit Founded(companyId, _name, _foundingCapitalGoal, _memberAmount);\n        return companyId;\n    }\n\n    function createMember(address newAddress , uint256 companyId) internal {\n        addressMember[newAddress].member = newAddress;\n        addressMember[newAddress].companyId = companyId;\n        memberAddresses[companyId].push(newAddress);\n        memberOfCertainCompany[companyId][newAddress] = true;\n    }\n\n    function payShare(uint256 companyId) external payable {\n        // external means less gas fees\n        // value needs to be more than expected companyfoundingcapital devided by amount of founders\n        require(msg.value >= foundingCapitalGoal[companyId]/memberAmount[companyId], 'value is not enough');\n\n        //if member is new, create member and assign to company\n        if (addressMember[msg.sender].member == address(0x0)){\n            createMember(msg.sender, companyId);\n        }\n        //save payed amount in correct member\n        addressMember[msg.sender].amount = msg.value;\n        payedCapital[companyId] += msg.value;\n\n        emit Received(msg.value, msg.sender, companyId);\n    }\n\n\n    function leaveCompany(uint256 companyId) external  {\n        //check, if user is part of the company\n        require(memberOfCertainCompany[companyId][msg.sender] = true, 'Address is not member of the company.');\n        //check, if company has more than one member\n        require(memberAddresses[companyId].length >1, 'Company just has one member. Please dissolve Company.');\n        //if member did not pay any share, one can not leave the company\n        require(addressMember[msg.sender].amount > 0, 'No shares payed.');\n\n        //calculate the retun amount\n        uint256 returnMoney = calcReturnAmount(msg.sender, companyId);\n        //if payed amount is smaller than part of payedcapital --> return amount payed, else return part of capital\n        payedCapital[companyId] = payedCapital[companyId] - returnMoney;\n        transfer(payable(msg.sender), returnMoney); //msg.sender needs to be casted to payable to receive ETH\n\n        //remove address from all mappings\n        delete addressMember[msg.sender];\n        memberAmount[companyId] -= 1;\n        memberOfCertainCompany[companyId][msg.sender] = false;\n        removeFromMemberAddresses(companyId, msg.sender);\n        emit Left(companyId, names[companyId], msg.sender);\n    }\n\n    //internal function to calculate the return amount\n    function calcReturnAmount(address returnAddress, uint256 companyId) internal view returns(uint256){\n        uint256 returnMoney = 0;\n        if (addressMember[returnAddress].amount < payedCapital[companyId]/memberAmount[companyId]){\n            returnMoney =  addressMember[returnAddress].amount;\n        } else {\n            returnMoney = payedCapital[companyId]/memberAmount[companyId];\n        }\n        return returnMoney;\n    }\n\n    //internal function to remove the address from mapping array\n    function removeFromMemberAddresses(uint256 companyId, address removeAddress) internal {\n        //search position of address in array\n        for(uint i = 0; i <  memberAddresses[companyId].length; i++) {\n            if (memberAddresses[companyId][i] != removeAddress){\n                replaceArray.push(memberAddresses[companyId][i]);\n            }\n        }\n        memberAddresses[companyId] = replaceArray;\n    }\n\n    //transfer function\n    function transfer(address payable to, uint256 amount) internal {\n        to.transfer(amount);\n    }\n\n\n\n    //every of the members need to run this function\n    function dissolveCompany(uint256 companyId) public {\n        require(companyExists[names[companyId]] = true, 'company does not exist');\n        require(memberOfCertainCompany[companyId][msg.sender] = true, 'Address is not member of the company.');\n        string memory companyName = names[companyId];\n\n        //ob msg.sender ist der letzte\n        // wenn ja, dann berweisen\n        // wenn nein, wantDissolveCompany fr member auf true\n\n        if (addressMember[msg.sender].wantDissolveCompany == false){\n            addressMember[msg.sender].wantDissolveCompany = true;\n            amountWantDissolveCompany[companyId]++;\n        }\n        //return all left money\n        if (amountWantDissolveCompany[companyId] == memberAmount[companyId]){\n            uint256 i = 0;\n            while (i < memberAmount[companyId]){ //array starts from 0\n                address returnAddress = memberAddresses[companyId][i];\n                uint256 returnAmount = calcReturnAmount(returnAddress, companyId);\n                transfer(payable(returnAddress), returnAmount);\n                i++;\n            }\n\n            // delete all memberData\n            uint256 j = 0;\n            address deleteMember;\n            while (j< memberAmount[companyId]){\n                deleteMember = memberAddresses[companyId][j];\n                delete addressMember[deleteMember];\n                memberOfCertainCompany[companyId][deleteMember] = false;\n                j++;\n            }\n            //delete all members of the one company\n            delete memberAddresses[companyId];\n            //set memberAmount to 0 of this company\n            memberAmount[companyId] = 0;\n            amountWantDissolveCompany[companyId] = 0;\n\n            //delete company\n            companyExists[names[companyId]] = false;\n            names[companyId] = '';\n            foundingCapitalGoal[companyId] = 0;\n            payedCapital[companyId] = 0;\n        }\n\n        emit Dissolved(companyId, companyName, msg.sender);\n\n    }\n\n    //returns memberAddresses\n    function getMembersById(uint256 companyId) external view returns  (address[] memory) {\n        require(companyExists[names[companyId]] == true, \"no company with this ID\");\n        return(memberAddresses[companyId]);\n    }\n\n    function getAllCompanies() external view returns (string[] memory) {\n        return company;\n    }\n\n    function getCompanyById(uint256 companyId) external view returns (string memory) {\n        require(companyExists[names[companyId]] == true, \"no company with this ID\");\n        return names[companyId];\n    }\n    function getCompanyBalanceById(uint256 companyId) external view returns (uint256) {\n        require(companyExists[names[companyId]] == true, \"no company with this ID\");\n        return payedCapital[companyId];\n    }\n\n    function getBalanceOfContract() external view returns (uint256)  {\n        return address(this).balance;\n    }\n}",
  "sourcePath": "/Users/felixwilberg/code/found_company/src/contracts/Company.sol",
  "compiler": {
    "name": "solc",
    "version": "0.8.10+commit.fc410830.Emscripten.clang"
  },
  "schemaVersion": "3.4.3",
  "updatedAt": "2022-02-09T09:04:03.497Z",
  "devdoc": {
    "kind": "dev",
    "methods": {},
    "version": 1
  },
  "userdoc": {
    "kind": "user",
    "methods": {},
    "version": 1
  }
}