{
  "contractName": "Company",
  "abi": [
    {
      "inputs": [],
      "stateMutability": "nonpayable",
      "type": "constructor"
    },
    {
      "anonymous": false,
      "inputs": [
        {
          "indexed": false,
          "internalType": "uint256",
          "name": "companyId",
          "type": "uint256"
        },
        {
          "indexed": false,
          "internalType": "string",
          "name": "name",
          "type": "string"
        }
      ],
      "name": "Dissolved",
      "type": "event"
    },
    {
      "anonymous": false,
      "inputs": [
        {
          "indexed": false,
          "internalType": "uint256",
          "name": "companyId",
          "type": "uint256"
        },
        {
          "indexed": false,
          "internalType": "string",
          "name": "name",
          "type": "string"
        },
        {
          "indexed": false,
          "internalType": "uint256",
          "name": "foundingcapitalgoal",
          "type": "uint256"
        },
        {
          "indexed": false,
          "internalType": "uint256",
          "name": "memberAmount",
          "type": "uint256"
        }
      ],
      "name": "Founded",
      "type": "event"
    },
    {
      "anonymous": false,
      "inputs": [
        {
          "indexed": false,
          "internalType": "uint256",
          "name": "value",
          "type": "uint256"
        },
        {
          "indexed": false,
          "internalType": "address",
          "name": "sender",
          "type": "address"
        }
      ],
      "name": "Received",
      "type": "event"
    },
    {
      "inputs": [
        {
          "internalType": "uint256",
          "name": "",
          "type": "uint256"
        }
      ],
      "name": "company",
      "outputs": [
        {
          "internalType": "string",
          "name": "",
          "type": "string"
        }
      ],
      "stateMutability": "view",
      "type": "function"
    },
    {
      "inputs": [],
      "name": "governance",
      "outputs": [
        {
          "internalType": "address",
          "name": "",
          "type": "address"
        }
      ],
      "stateMutability": "view",
      "type": "function"
    },
    {
      "inputs": [],
      "name": "name",
      "outputs": [
        {
          "internalType": "string",
          "name": "",
          "type": "string"
        }
      ],
      "stateMutability": "view",
      "type": "function"
    },
    {
      "inputs": [
        {
          "internalType": "string",
          "name": "_name",
          "type": "string"
        },
        {
          "internalType": "uint256",
          "name": "_foundingcapitalgoal",
          "type": "uint256"
        },
        {
          "internalType": "uint256",
          "name": "_memberAmount",
          "type": "uint256"
        }
      ],
      "name": "found",
      "outputs": [
        {
          "internalType": "uint256",
          "name": "",
          "type": "uint256"
        }
      ],
      "stateMutability": "nonpayable",
      "type": "function"
    },
    {
      "inputs": [
        {
          "internalType": "uint256",
          "name": "companyId",
          "type": "uint256"
        }
      ],
      "name": "payShare",
      "outputs": [
        {
          "internalType": "uint256",
          "name": "",
          "type": "uint256"
        }
      ],
      "stateMutability": "payable",
      "type": "function"
    },
    {
      "inputs": [
        {
          "internalType": "uint256",
          "name": "companyId",
          "type": "uint256"
        }
      ],
      "name": "leaveCompany",
      "outputs": [
        {
          "internalType": "uint256",
          "name": "",
          "type": "uint256"
        }
      ],
      "stateMutability": "nonpayable",
      "type": "function"
    },
    {
      "inputs": [
        {
          "internalType": "uint256",
          "name": "companyId",
          "type": "uint256"
        }
      ],
      "name": "dissolveCopany",
      "outputs": [],
      "stateMutability": "nonpayable",
      "type": "function"
    },
    {
      "inputs": [
        {
          "internalType": "uint256",
          "name": "companyId",
          "type": "uint256"
        }
      ],
      "name": "getMembers",
      "outputs": [
        {
          "internalType": "address[]",
          "name": "",
          "type": "address[]"
        }
      ],
      "stateMutability": "view",
      "type": "function"
    }
  ],
  "bytecode": "0x60c0604052601660808190527f466f756e6420796f7572206f776e20636f6d70616e790000000000000000000060a090815262000040916002919062000067565b503480156200004e57600080fd5b50600080546001600160a01b031916331790556200014a565b82805462000075906200010d565b90600052602060002090601f016020900481019282620000995760008555620000e4565b82601f10620000b457805160ff1916838001178555620000e4565b82800160010185558215620000e4579182015b82811115620000e4578251825591602001919060010190620000c7565b50620000f2929150620000f6565b5090565b5b80821115620000f25760008155600101620000f7565b600181811c908216806200012257607f821691505b602082108114156200014457634e487b7160e01b600052602260045260246000fd5b50919050565b610fe7806200015a6000396000f3fe60806040526004361061007b5760003560e01c8063c477ecab1161004e578063c477ecab14610131578063c8dc0b051461015e578063c97320a714610180578063eacebba31461019357600080fd5b806306fdde03146100805780635aa6e675146100ab578063804e29ad146100e3578063b79c800914610111575b600080fd5b34801561008c57600080fd5b506100956101b3565b6040516100a29190610c44565b60405180910390f35b3480156100b757600080fd5b506000546100cb906001600160a01b031681565b6040516001600160a01b0390911681526020016100a2565b3480156100ef57600080fd5b506101036100fe366004610c57565b610241565b6040519081526020016100a2565b34801561011d57600080fd5b5061010361012c366004610c86565b610424565b34801561013d57600080fd5b5061015161014c366004610c57565b61062a565b6040516100a29190610d4a565b34801561016a57600080fd5b5061017e610179366004610c57565b610696565b005b61010361018e366004610c57565b61083c565b34801561019f57600080fd5b506100956101ae366004610c57565b610937565b600280546101c090610d97565b80601f01602080910402602001604051908101604052809291908181526020018280546101ec90610d97565b80156102395780601f1061020e57610100808354040283529160200191610239565b820191906000526020600020905b81548152906001019060200180831161021c57829003601f168201915b505050505081565b60008181526008602090815260408083203384529091528120805460ff19166001179055610273565b60405180910390fd5b6000828152600460205260409020546001106102ef5760405162461bcd60e51b815260206004820152603560248201527f436f6d70616e79206a75737420686173206f6e65206d656d6265722e20506c6560448201527430b9b2903234b9b9b7b63b329021b7b6b830b73c9760591b606482015260840161026a565b336000908152600360205260409020600101546103415760405162461bcd60e51b815260206004820152601060248201526f27379039b430b932b9903830bcb2b21760811b604482015260640161026a565b600061034d3384610962565b6000848152600c602052604090205490915061036a908290610de8565b6000848152600c602052604090205561038333826109fa565b33600090815260036020818152604080842080546001600160a01b03191681556001808201869055600282018690559301805460ff19169055868452600590915282208054919290916103d7908490610de8565b9091555050600083815260086020908152604080832033808552908352818420805460ff19908116909155600790935292208054909116905561041b908490610a35565b50600192915050565b6000600a846040516104369190610dff565b9081526040519081900360200190205460ff161561048f5760405162461bcd60e51b8152602060048201526016602482015275436f6d70616e7920616c72656164792065786973747360501b604482015260640161026a565b60018054808201825560009190915284516104d1917fb10e2d527612073b26eecdfd717e6a320cf44b4afac2b0732d9fcbe2b7fa0cf601906020870190610b4f565b50600180546000916104e291610de8565b60008181526009602090815260409091208751929350610506929091880190610b4f565b506000818152600560209081526040808320869055600b8252808320879055600c9091528082209190915551600190600a90610543908890610dff565b90815260408051918290036020908101909220805493151560ff19948516179055600084815260068352818120819055338082526003845282822080546001600160a01b031990811683178255600290910187905586835260048552838320805460018181018355918552868520018054909216831790915586835260088552838320918352908452828220805486168217905560079093522080549092161790557fa23153e0aa97e342ddf43ef137344681c051370a794dc94caecf818bf633c7d68186868660405161061a9493929190610e1b565b60405180910390a1949350505050565b60008181526004602090815260409182902080548351818402810184019094528084526060939283018282801561068a57602002820191906000526020600020905b81546001600160a01b0316815260019091019060200180831161066c575b50505050509050919050565b60008181526008602090815260408083203384529091529020805460ff191660011790556001600a600960008481526020019081526020016000206040516106de9190610e47565b908152604051908190036020019020805482151560ff199091161790556107405760405162461bcd60e51b815260206004820152601660248201527518dbdb5c185b9e48191bd95cc81b9bdd08195e1a5cdd60521b604482015260640161026a565b336000908152600360208181526040808420909201805460ff191690558383526005815281832054600690915291205414156107f15760005b6000828152600560205260409020548110156107ef5760008281526004602052604081208054839081106107af576107af610ed4565b60009182526020822001546001600160a01b031691506107cf8285610962565b90506107db82826109fa565b826107e581610eb9565b9350505050610779565b505b6000818152600960205260409081902090517fef53271c4c0e7398caf65fbf39308d356e34ee416d6ed519dc073d553396fade9161083191849190610eea565b60405180910390a150565b600081815260056020908152604080832054600b9092528220546108609190610f77565b3410156108a55760405162461bcd60e51b81526020600482015260136024820152720ecc2d8eaca40d2e640dcdee840cadcdeeaced606b1b604482015260640161026a565b60008281526008602090815260408083203384528252808320805460ff191690556003825280832034600191909101819055858452600c90925282208054919290916108f2908490610f99565b9091555050604080513481523360208201527f8863e458255c600ae3e61be347822f3ee57088c8538b68b5dd2357e682e59e19910160405180910390a1506001919050565b6001818154811061094757600080fd5b9060005260206000200160009150905080546101c090610d97565b600081815260056020908152604080832054600c909252822054829161098791610f77565b6001600160a01b03851660009081526003602052604090206001015410156109cb57506001600160a01b0383166000908152600360205260409020600101546109f3565b600083815260056020908152604080832054600c909252909120546109f09190610f77565b90505b9392505050565b6040516001600160a01b0383169082156108fc029083906000818181858888f19350505050158015610a30573d6000803e3d6000fd5b505050565b60005b600083815260046020526040902080546001600160a01b038416919083908110610a6457610a64610ed4565b6000918252602090912001546001600160a01b031614610a905780610a8881610eb9565b915050610a38565b600083815260046020526040902054610aab90600190610de8565b811015610a30576000838152600460205260409020610acb826001610f99565b81548110610adb57610adb610ed4565b60009182526020808320909101548583526004909152604090912080546001600160a01b039092169183908110610b1457610b14610ed4565b600091825260209091200180546001600160a01b0319166001600160a01b039290921691909117905580610b4781610eb9565b915050610a90565b828054610b5b90610d97565b90600052602060002090601f016020900481019282610b7d5760008555610bc3565b82601f10610b9657805160ff1916838001178555610bc3565b82800160010185558215610bc3579182015b82811115610bc3578251825591602001919060010190610ba8565b50610bcf929150610bd3565b5090565b5b80821115610bcf5760008155600101610bd4565b60005b83811015610c03578181015183820152602001610beb565b83811115610c12576000848401525b50505050565b60008151808452610c30816020860160208601610be8565b601f01601f19169290920160200192915050565b6020815260006109f36020830184610c18565b600060208284031215610c6957600080fd5b5035919050565b634e487b7160e01b600052604160045260246000fd5b600080600060608486031215610c9b57600080fd5b833567ffffffffffffffff80821115610cb357600080fd5b818601915086601f830112610cc757600080fd5b813581811115610cd957610cd9610c70565b604051601f8201601f19908116603f01168101908382118183101715610d0157610d01610c70565b81604052828152896020848701011115610d1a57600080fd5b82602086016020830137600060208483010152809750505050505060208401359150604084013590509250925092565b6020808252825182820181905260009190848201906040850190845b81811015610d8b5783516001600160a01b031683529284019291840191600101610d66565b50909695505050505050565b600181811c90821680610dab57607f821691505b60208210811415610dcc57634e487b7160e01b600052602260045260246000fd5b50919050565b634e487b7160e01b600052601160045260246000fd5b600082821015610dfa57610dfa610dd2565b500390565b60008251610e11818460208701610be8565b9190910192915050565b848152608060208201526000610e346080830186610c18565b6040830194909452506060015292915050565b6000808354610e5581610d97565b60018281168015610e6d5760018114610e7e57610ead565b60ff19841687528287019450610ead565b8760005260208060002060005b85811015610ea45781548a820152908401908201610e8b565b50505082870194505b50929695505050505050565b6000600019821415610ecd57610ecd610dd2565b5060010190565b634e487b7160e01b600052603260045260246000fd5b8281526000602060408184015260008454610f0481610d97565b8060408701526060600180841660008114610f265760018114610f3a57610f68565b60ff19851689840152608089019550610f68565b896000528660002060005b85811015610f605781548b8201860152908301908801610f45565b8a0184019650505b50939998505050505050505050565b600082610f9457634e487b7160e01b600052601260045260246000fd5b500490565b60008219821115610fac57610fac610dd2565b50019056fea2646970667358221220229307ca9160aae8d82f24000ffcf9fb40537a8e2162ff95c19d5e4eef4a231764736f6c634300080a0033",
  "immutableReferences": {},
  "source": "// SPDX-License-Identifier: MIT\npragma solidity 0.8.10;\n\n\ncontract Company {\n\n    ///////////////////////////\n    /////////CONSTRUCTOR///////\n    ///////////////////////////\n\n    constructor(){\n        //governance = governance_;\n        governance = msg.sender;\n    }\n\n    ///////////////////////////\n    /////////VARIABLES/////////\n    ///////////////////////////\n\n    //owner of contract\n    address public governance;\n    string[] public company;\n    string public name = \"Found your own company\";\n\n    //every Member of a company is a shareholder\n    // a member consists of address, amount of coins investested and boolean for polling if company should be dissolved\n    struct Member{\n        address member;\n        uint256 amount;\n        uint256 companyId;\n        bool wantDissolveCompany;\n    }\n\n\n\n    ///////////////////////////\n    /////////MAPPINGS//////////\n    ///////////////////////////\n\n    //company and member specific\n    mapping(address => Member) internal addressMember; //map address to the member\n    //mapping(uint256 => Member[]) internal members; // map\n    mapping(uint256 => address[]) internal memberAddresses;\n    mapping(uint256 => uint256) internal memberAmount; // map amount company id to amount of members\n    mapping(uint256 => uint256) internal amountWantDissolveCompany; //map company id to amount of members who want to dissolve the company\n\n    //memberregister\n    mapping(address => bool) internal memberOfAnyCompany; //all addresses who are members to any company\n    mapping(uint256 => mapping(address => bool)) memberOfCertainCompany; //member of a certain company\n\n    //companyregister\n    mapping(uint256 => string) internal names; // map company id to name of company\n    mapping(string => bool) internal companyExists; //map company name to bool\n\n    //companycapitalrelated\n    mapping(uint256 => uint256) internal foundingcapitalgoal; //starting capital per companyId\n    mapping(uint256 => uint256) internal payedCapital; //payedCapital per company\n\n\n    ///////////////////////////\n    /////////EVENTS////////////\n    ///////////////////////////\n\n    event Received(uint256 value, address sender);\n    event Founded(uint256 companyId, string name, uint256 foundingcapitalgoal, uint256 memberAmount);\n    event Dissolved(uint256 companyId, string name);\n\n\n    ///////////////////////////\n    /////////FUNCTIONS/////////\n    ///////////////////////////\n\n    function found(string memory _name, uint256 _foundingcapitalgoal, uint256 _memberAmount) external returns (uint256) {\n        require(!companyExists[_name], 'Company already exists');\n        // keine Namenssperre vorhanden?\n\n        //company anlegen\n        company.push(_name);\n        uint256 companyId = company.length -1;\n        names[companyId] = _name;\n        memberAmount[companyId] = _memberAmount;\n        foundingcapitalgoal[companyId] = _foundingcapitalgoal;\n        payedCapital[companyId] = 0;\n        companyExists[_name] = true;\n        amountWantDissolveCompany[companyId]=0;\n\n        //msg.sender is first founder\n        createMember(msg.sender, companyId);\n        emit Founded(companyId, _name, _foundingcapitalgoal, _memberAmount);\n        return companyId;\n    }\n\n    function createMember(address newAddress , uint256 companyId) internal {\n        addressMember[newAddress].member = newAddress;\n        addressMember[newAddress].companyId = companyId;\n        memberAddresses[companyId].push(newAddress);\n        memberOfCertainCompany[companyId][newAddress] = true;\n        memberOfAnyCompany[newAddress] = true;\n    }\n\n    function payShare(uint256 companyId) external payable returns(uint256) {   //external means less gas fees\n        // value needs to be more than expected companyfoundingcapital devided by amount of founders\n        require(msg.value >= foundingcapitalgoal[companyId]/memberAmount[companyId], 'value is not enough');\n\n        //if member is new, create member and assign to company\n        if (memberOfCertainCompany[companyId][msg.sender] = false){\n            createMember(msg.sender, companyId);\n        }\n        //save payed amount in correct member\n        addressMember[msg.sender].amount = msg.value;\n        payedCapital[companyId] += msg.value;\n\n        //return 1 for success and missing capital\n        //uint256 missing = foundingcapitalgoal[companyId] - payedCapital[companyId];\n\n        emit Received(msg.value, msg.sender);\n        return(1);\n    }\n\n\n    function leaveCompany(uint256 companyId) external returns (uint256) {\n        //check, if user is part of the company\n        require(memberOfCertainCompany[companyId][msg.sender] = true, 'Address is not member of the company.');\n        //check, if company has more than one member\n        require(memberAddresses[companyId].length >1, 'Company just has one member. Please dissolve Company.');\n        //evtl. dissokve automatisch aufrufen\n        require(addressMember[msg.sender].amount > 0, 'No shares payed.');\n        //variable for the returnmoney\n        uint256 returnMoney = calcReturnAmount(msg.sender, companyId);\n\n        //if payed amount is smaller than part of payedcapital --> return amount payed, else return part of capital\n\n        payedCapital[companyId] = payedCapital[companyId] - returnMoney;\n        transfer(payable(msg.sender), returnMoney); //msg.sender needs to be casted to payable to receive ETH\n\n        //remove address from all mappings\n        delete addressMember[msg.sender];\n        memberAmount[companyId] -= 1;\n        memberOfCertainCompany[companyId][msg.sender] = false;\n        memberOfAnyCompany[msg.sender] = false;\n        removeFromMemberAddresses(companyId, msg.sender);\n        return(1);\n    }\n\n    function calcReturnAmount(address returnAddress, uint256 companyId) internal view returns(uint256){\n        uint256 returnMoney = 0;\n        if (addressMember[returnAddress].amount < payedCapital[companyId]/memberAmount[companyId]){\n            returnMoney =  addressMember[returnAddress].amount;\n        } else {\n            returnMoney = payedCapital[companyId]/memberAmount[companyId];\n        }\n        return returnMoney;\n    }\n\n    function removeFromMemberAddresses(uint256 companyId, address removeAddress) internal {\n        uint i = 0;\n        while (memberAddresses[companyId][i] != removeAddress) {\n            i++;\n        }\n        while (i<memberAddresses[companyId].length-1) {\n            memberAddresses[companyId][i] = memberAddresses[companyId][i+1];\n            i++;\n        }\n        //memberAddresses[companyId].length --; // not needed cause of dynamic array\n    }\n\n    //transfer function\n    function transfer(address payable to, uint256 amount) internal {\n        to.transfer(amount);\n    }\n\n\n\n    //every of the members need to run this function\n    function dissolveCopany(uint256 companyId) public {\n        require(memberOfCertainCompany[companyId][msg.sender] = true, 'Address is not member of any company.');\n        require(companyExists[names[companyId]] = true, 'company does not exist');\n        //ob msg.sender ist der letzte\n        // wenn ja, dann berweisen\n        // wenn nein, wantDissolveCompany fr member auf true\n\n        if (addressMember[msg.sender].wantDissolveCompany = false){\n            addressMember[msg.sender].wantDissolveCompany = true;\n            amountWantDissolveCompany[companyId]++;\n        }\n        if (amountWantDissolveCompany[companyId] == memberAmount[companyId]){\n            uint256 i = 0;\n            while (i < memberAmount[companyId]){ //array starts from 0\n                address returnAddress =memberAddresses[companyId][i];\n                uint256 returnAmount = calcReturnAmount(returnAddress, companyId);\n                transfer(payable(returnAddress), returnAmount);\n                i++;\n            }\n\n            // delete everything\n\n            // return erfolgreich\n        }\n        // 1 Jahr Sperre fr Namen\n        emit Dissolved(companyId, names[companyId]);\n\n    }\n\n    //returns memberAddresses\n    function getMembers(uint256 companyId) external view returns  (address[] memory) {\n        return(memberAddresses[companyId]);\n    }\n}",
  "sourcePath": "/Users/felixwilberg/code/found_company/src/contracts/Company.sol",
  "compiler": {
    "name": "solc",
    "version": "0.8.10+commit.fc410830.Emscripten.clang"
  },
  "schemaVersion": "3.4.3",
  "updatedAt": "2022-01-30T21:46:04.258Z",
  "devdoc": {
    "kind": "dev",
    "methods": {},
    "version": 1
  },
  "userdoc": {
    "kind": "user",
    "methods": {},
    "version": 1
  }
}