{
  "contractName": "Company",
  "abi": [
    {
      "inputs": [],
      "stateMutability": "nonpayable",
      "type": "constructor"
    },
    {
      "anonymous": false,
      "inputs": [
        {
          "indexed": false,
          "internalType": "uint256",
          "name": "companyId",
          "type": "uint256"
        },
        {
          "indexed": false,
          "internalType": "string",
          "name": "name",
          "type": "string"
        }
      ],
      "name": "Dissolved",
      "type": "event"
    },
    {
      "anonymous": false,
      "inputs": [
        {
          "indexed": false,
          "internalType": "uint256",
          "name": "companyId",
          "type": "uint256"
        },
        {
          "indexed": false,
          "internalType": "string",
          "name": "name",
          "type": "string"
        },
        {
          "indexed": false,
          "internalType": "uint256",
          "name": "foundingcapitalgoal",
          "type": "uint256"
        },
        {
          "indexed": false,
          "internalType": "uint256",
          "name": "memberAmount",
          "type": "uint256"
        }
      ],
      "name": "Founded",
      "type": "event"
    },
    {
      "anonymous": false,
      "inputs": [
        {
          "indexed": false,
          "internalType": "uint256",
          "name": "value",
          "type": "uint256"
        },
        {
          "indexed": false,
          "internalType": "address",
          "name": "sender",
          "type": "address"
        }
      ],
      "name": "Received",
      "type": "event"
    },
    {
      "inputs": [
        {
          "internalType": "uint256",
          "name": "",
          "type": "uint256"
        }
      ],
      "name": "company",
      "outputs": [
        {
          "internalType": "string",
          "name": "",
          "type": "string"
        }
      ],
      "stateMutability": "view",
      "type": "function"
    },
    {
      "inputs": [],
      "name": "governance",
      "outputs": [
        {
          "internalType": "address",
          "name": "",
          "type": "address"
        }
      ],
      "stateMutability": "view",
      "type": "function"
    },
    {
      "inputs": [],
      "name": "name",
      "outputs": [
        {
          "internalType": "string",
          "name": "",
          "type": "string"
        }
      ],
      "stateMutability": "view",
      "type": "function"
    },
    {
      "inputs": [
        {
          "internalType": "string",
          "name": "_name",
          "type": "string"
        },
        {
          "internalType": "uint256",
          "name": "_foundingcapitalgoal",
          "type": "uint256"
        },
        {
          "internalType": "uint256",
          "name": "_memberAmount",
          "type": "uint256"
        }
      ],
      "name": "found",
      "outputs": [
        {
          "internalType": "uint256",
          "name": "",
          "type": "uint256"
        }
      ],
      "stateMutability": "nonpayable",
      "type": "function"
    },
    {
      "inputs": [
        {
          "internalType": "uint256",
          "name": "companyId",
          "type": "uint256"
        }
      ],
      "name": "payShare",
      "outputs": [
        {
          "internalType": "uint256",
          "name": "",
          "type": "uint256"
        }
      ],
      "stateMutability": "payable",
      "type": "function"
    },
    {
      "inputs": [
        {
          "internalType": "uint256",
          "name": "companyId",
          "type": "uint256"
        }
      ],
      "name": "leaveCompany",
      "outputs": [
        {
          "internalType": "uint256",
          "name": "",
          "type": "uint256"
        }
      ],
      "stateMutability": "nonpayable",
      "type": "function"
    },
    {
      "inputs": [
        {
          "internalType": "uint256",
          "name": "companyId",
          "type": "uint256"
        }
      ],
      "name": "dissolveCopany",
      "outputs": [],
      "stateMutability": "nonpayable",
      "type": "function"
    },
    {
      "inputs": [
        {
          "internalType": "uint256",
          "name": "companyId",
          "type": "uint256"
        }
      ],
      "name": "getMembers",
      "outputs": [
        {
          "internalType": "address[]",
          "name": "",
          "type": "address[]"
        }
      ],
      "stateMutability": "view",
      "type": "function"
    },
    {
      "inputs": [],
      "name": "getAllCompanies",
      "outputs": [
        {
          "internalType": "string[]",
          "name": "",
          "type": "string[]"
        }
      ],
      "stateMutability": "view",
      "type": "function"
    },
    {
      "inputs": [],
      "name": "getMyCompany",
      "outputs": [
        {
          "internalType": "string",
          "name": "",
          "type": "string"
        }
      ],
      "stateMutability": "view",
      "type": "function"
    },
    {
      "inputs": [],
      "name": "getCompanyBalance",
      "outputs": [
        {
          "internalType": "uint256",
          "name": "",
          "type": "uint256"
        }
      ],
      "stateMutability": "view",
      "type": "function"
    }
  ],
  "bytecode": "0x60c0604052601660808190527f466f756e6420796f7572206f776e20636f6d70616e790000000000000000000060a090815262000040916002919062000067565b503480156200004e57600080fd5b50600080546001600160a01b031916331790556200014a565b82805462000075906200010d565b90600052602060002090601f016020900481019282620000995760008555620000e4565b82601f10620000b457805160ff1916838001178555620000e4565b82800160010185558215620000e4579182015b82811115620000e4578251825591602001919060010190620000c7565b50620000f2929150620000f6565b5090565b5b80821115620000f25760008155600101620000f7565b600181811c908216806200012257607f821691505b602082108114156200014457634e487b7160e01b600052602260045260246000fd5b50919050565b61125d806200015a6000396000f3fe60806040526004361061009c5760003560e01c8063804e29ad11610064578063804e29ad14610177578063b79c800914610197578063c477ecab146101b7578063c8dc0b05146101e4578063c97320a714610206578063eacebba31461021957600080fd5b806305ea5e6d146100a157806306fdde03146100cc578063408bf4c3146100e157806344ba0fe8146101035780635aa6e6751461013f575b600080fd5b3480156100ad57600080fd5b506100b6610239565b6040516100c39190610e58565b60405180910390f35b3480156100d857600080fd5b506100b66102ee565b3480156100ed57600080fd5b506100f661037c565b6040516100c39190610e6b565b34801561010f57600080fd5b50336000908152600360209081526040808320600201548352600c9091529020545b6040519081526020016100c3565b34801561014b57600080fd5b5060005461015f906001600160a01b031681565b6040516001600160a01b0390911681526020016100c3565b34801561018357600080fd5b50610131610192366004610ecd565b610455565b3480156101a357600080fd5b506101316101b2366004610efc565b610638565b3480156101c357600080fd5b506101d76101d2366004610ecd565b61083e565b6040516100c39190610fc0565b3480156101f057600080fd5b506102046101ff366004610ecd565b6108aa565b005b610131610214366004610ecd565b610a50565b34801561022557600080fd5b506100b6610234366004610ecd565b610b4b565b3360009081526003602090815260408083206002015480845260099092529091208054606092919061026a9061100d565b80601f01602080910402602001604051908101604052809291908181526020018280546102969061100d565b80156102e35780601f106102b8576101008083540402835291602001916102e3565b820191906000526020600020905b8154815290600101906020018083116102c657829003601f168201915b505050505091505090565b600280546102fb9061100d565b80601f01602080910402602001604051908101604052809291908181526020018280546103279061100d565b80156103745780601f1061034957610100808354040283529160200191610374565b820191906000526020600020905b81548152906001019060200180831161035757829003601f168201915b505050505081565b60606001805480602002602001604051908101604052809291908181526020016000905b8282101561044c5783829060005260206000200180546103bf9061100d565b80601f01602080910402602001604051908101604052809291908181526020018280546103eb9061100d565b80156104385780601f1061040d57610100808354040283529160200191610438565b820191906000526020600020905b81548152906001019060200180831161041b57829003601f168201915b5050505050815260200190600101906103a0565b50505050905090565b60008181526008602090815260408083203384529091528120805460ff19166001179055610487565b60405180910390fd5b6000828152600460205260409020546001106105035760405162461bcd60e51b815260206004820152603560248201527f436f6d70616e79206a75737420686173206f6e65206d656d6265722e20506c6560448201527430b9b2903234b9b9b7b63b329021b7b6b830b73c9760591b606482015260840161047e565b336000908152600360205260409020600101546105555760405162461bcd60e51b815260206004820152601060248201526f27379039b430b932b9903830bcb2b21760811b604482015260640161047e565b60006105613384610b76565b6000848152600c602052604090205490915061057e90829061105e565b6000848152600c60205260409020556105973382610c0e565b33600090815260036020818152604080842080546001600160a01b03191681556001808201869055600282018690559301805460ff19169055868452600590915282208054919290916105eb90849061105e565b9091555050600083815260086020908152604080832033808552908352818420805460ff19908116909155600790935292208054909116905561062f908490610c49565b50600192915050565b6000600a8460405161064a9190611075565b9081526040519081900360200190205460ff16156106a35760405162461bcd60e51b8152602060048201526016602482015275436f6d70616e7920616c72656164792065786973747360501b604482015260640161047e565b60018054808201825560009190915284516106e5917fb10e2d527612073b26eecdfd717e6a320cf44b4afac2b0732d9fcbe2b7fa0cf601906020870190610d63565b50600180546000916106f69161105e565b6000818152600960209081526040909120875192935061071a929091880190610d63565b506000818152600560209081526040808320869055600b8252808320879055600c9091528082209190915551600190600a90610757908890611075565b90815260408051918290036020908101909220805493151560ff19948516179055600084815260068352818120819055338082526003845282822080546001600160a01b031990811683178255600290910187905586835260048552838320805460018181018355918552868520018054909216831790915586835260088552838320918352908452828220805486168217905560079093522080549092161790557fa23153e0aa97e342ddf43ef137344681c051370a794dc94caecf818bf633c7d68186868660405161082e9493929190611091565b60405180910390a1949350505050565b60008181526004602090815260409182902080548351818402810184019094528084526060939283018282801561089e57602002820191906000526020600020905b81546001600160a01b03168152600190910190602001808311610880575b50505050509050919050565b60008181526008602090815260408083203384529091529020805460ff191660011790556001600a600960008481526020019081526020016000206040516108f291906110bd565b908152604051908190036020019020805482151560ff199091161790556109545760405162461bcd60e51b815260206004820152601660248201527518dbdb5c185b9e48191bd95cc81b9bdd08195e1a5cdd60521b604482015260640161047e565b336000908152600360208181526040808420909201805460ff19169055838352600581528183205460069091529120541415610a055760005b600082815260056020526040902054811015610a035760008281526004602052604081208054839081106109c3576109c361114a565b60009182526020822001546001600160a01b031691506109e38285610b76565b90506109ef8282610c0e565b826109f98161112f565b935050505061098d565b505b6000818152600960205260409081902090517fef53271c4c0e7398caf65fbf39308d356e34ee416d6ed519dc073d553396fade91610a4591849190611160565b60405180910390a150565b600081815260056020908152604080832054600b909252822054610a7491906111ed565b341015610ab95760405162461bcd60e51b81526020600482015260136024820152720ecc2d8eaca40d2e640dcdee840cadcdeeaced606b1b604482015260640161047e565b60008281526008602090815260408083203384528252808320805460ff191690556003825280832034600191909101819055858452600c9092528220805491929091610b0690849061120f565b9091555050604080513481523360208201527f8863e458255c600ae3e61be347822f3ee57088c8538b68b5dd2357e682e59e19910160405180910390a1506001919050565b60018181548110610b5b57600080fd5b9060005260206000200160009150905080546102fb9061100d565b600081815260056020908152604080832054600c9092528220548291610b9b916111ed565b6001600160a01b0385166000908152600360205260409020600101541015610bdf57506001600160a01b038316600090815260036020526040902060010154610c07565b600083815260056020908152604080832054600c90925290912054610c0491906111ed565b90505b9392505050565b6040516001600160a01b0383169082156108fc029083906000818181858888f19350505050158015610c44573d6000803e3d6000fd5b505050565b60005b600083815260046020526040902080546001600160a01b038416919083908110610c7857610c7861114a565b6000918252602090912001546001600160a01b031614610ca45780610c9c8161112f565b915050610c4c565b600083815260046020526040902054610cbf9060019061105e565b811015610c44576000838152600460205260409020610cdf82600161120f565b81548110610cef57610cef61114a565b60009182526020808320909101548583526004909152604090912080546001600160a01b039092169183908110610d2857610d2861114a565b600091825260209091200180546001600160a01b0319166001600160a01b039290921691909117905580610d5b8161112f565b915050610ca4565b828054610d6f9061100d565b90600052602060002090601f016020900481019282610d915760008555610dd7565b82601f10610daa57805160ff1916838001178555610dd7565b82800160010185558215610dd7579182015b82811115610dd7578251825591602001919060010190610dbc565b50610de3929150610de7565b5090565b5b80821115610de35760008155600101610de8565b60005b83811015610e17578181015183820152602001610dff565b83811115610e26576000848401525b50505050565b60008151808452610e44816020860160208601610dfc565b601f01601f19169290920160200192915050565b602081526000610c076020830184610e2c565b6000602080830181845280855180835260408601915060408160051b870101925083870160005b82811015610ec057603f19888603018452610eae858351610e2c565b94509285019290850190600101610e92565b5092979650505050505050565b600060208284031215610edf57600080fd5b5035919050565b634e487b7160e01b600052604160045260246000fd5b600080600060608486031215610f1157600080fd5b833567ffffffffffffffff80821115610f2957600080fd5b818601915086601f830112610f3d57600080fd5b813581811115610f4f57610f4f610ee6565b604051601f8201601f19908116603f01168101908382118183101715610f7757610f77610ee6565b81604052828152896020848701011115610f9057600080fd5b82602086016020830137600060208483010152809750505050505060208401359150604084013590509250925092565b6020808252825182820181905260009190848201906040850190845b818110156110015783516001600160a01b031683529284019291840191600101610fdc565b50909695505050505050565b600181811c9082168061102157607f821691505b6020821081141561104257634e487b7160e01b600052602260045260246000fd5b50919050565b634e487b7160e01b600052601160045260246000fd5b60008282101561107057611070611048565b500390565b60008251611087818460208701610dfc565b9190910192915050565b8481526080602082015260006110aa6080830186610e2c565b6040830194909452506060015292915050565b60008083546110cb8161100d565b600182811680156110e357600181146110f457611123565b60ff19841687528287019450611123565b8760005260208060002060005b8581101561111a5781548a820152908401908201611101565b50505082870194505b50929695505050505050565b600060001982141561114357611143611048565b5060010190565b634e487b7160e01b600052603260045260246000fd5b828152600060206040818401526000845461117a8161100d565b806040870152606060018084166000811461119c57600181146111b0576111de565b60ff198516898401526080890195506111de565b896000528660002060005b858110156111d65781548b82018601529083019088016111bb565b8a0184019650505b50939998505050505050505050565b60008261120a57634e487b7160e01b600052601260045260246000fd5b500490565b6000821982111561122257611222611048565b50019056fea2646970667358221220b1371bd2035ba5fd44254296e988bfe7fe6c6de1a73d274f61db5c1fef0560c664736f6c634300080a0033",
  "immutableReferences": {},
  "source": "// SPDX-License-Identifier: MIT\npragma solidity 0.8.10;\n\n\ncontract Company {\n\n    ///////////////////////////\n    /////////CONSTRUCTOR///////\n    ///////////////////////////\n\n    constructor(){\n        //governance = governance_;\n        governance = msg.sender;\n    }\n\n    ///////////////////////////\n    /////////VARIABLES/////////\n    ///////////////////////////\n\n    //owner of contract\n    address public governance;\n    string[] public company;\n    string public name = \"Found your own company\";\n\n    //every Member of a company is a shareholder\n    // a member consists of address, amount of coins investested and boolean for polling if company should be dissolved\n    struct Member{\n        address member;\n        uint256 amount;\n        uint256 companyId;\n        bool wantDissolveCompany;\n    }\n\n\n\n    ///////////////////////////\n    /////////MAPPINGS//////////\n    ///////////////////////////\n\n    //company and member specific\n    mapping(address => Member) internal addressMember; //map address to the member\n    //mapping(uint256 => Member[]) internal members; // map\n    mapping(uint256 => address[]) internal memberAddresses;\n    mapping(uint256 => uint256) internal memberAmount; // map amount company id to amount of members\n    mapping(uint256 => uint256) internal amountWantDissolveCompany; //map company id to amount of members who want to dissolve the company\n\n    //memberregister\n    mapping(address => bool) internal memberOfAnyCompany; //all addresses who are members to any company\n    mapping(uint256 => mapping(address => bool)) memberOfCertainCompany; //member of a certain company\n\n    //companyregister\n    mapping(uint256 => string) internal names; // map company id to name of company\n    mapping(string => bool) internal companyExists; //map company name to bool\n\n    //companycapitalrelated\n    mapping(uint256 => uint256) internal foundingcapitalgoal; //starting capital per companyId\n    mapping(uint256 => uint256) internal payedCapital; //payedCapital per company\n\n\n    ///////////////////////////\n    /////////EVENTS////////////\n    ///////////////////////////\n\n    event Received(uint256 value, address sender);\n    event Founded(uint256 companyId, string name, uint256 foundingcapitalgoal, uint256 memberAmount);\n    event Dissolved(uint256 companyId, string name);\n\n\n    ///////////////////////////\n    /////////FUNCTIONS/////////\n    ///////////////////////////\n\n    function found(string memory _name, uint256 _foundingcapitalgoal, uint256 _memberAmount) external returns (uint256) {\n        require(!companyExists[_name], 'Company already exists');\n        // keine Namenssperre vorhanden?\n\n        //company anlegen\n        company.push(_name);\n        uint256 companyId = company.length -1;\n        names[companyId] = _name;\n        memberAmount[companyId] = _memberAmount;\n        foundingcapitalgoal[companyId] = _foundingcapitalgoal;\n        payedCapital[companyId] = 0;\n        companyExists[_name] = true;\n        amountWantDissolveCompany[companyId]=0;\n\n        //msg.sender is first founder\n        createMember(msg.sender, companyId);\n        emit Founded(companyId, _name, _foundingcapitalgoal, _memberAmount);\n        return companyId;\n    }\n\n    function createMember(address newAddress , uint256 companyId) internal {\n        addressMember[newAddress].member = newAddress;\n        addressMember[newAddress].companyId = companyId;\n        memberAddresses[companyId].push(newAddress);\n        memberOfCertainCompany[companyId][newAddress] = true;\n        memberOfAnyCompany[newAddress] = true;\n    }\n\n    function payShare(uint256 companyId) external payable returns(uint256) {   //external means less gas fees\n        // value needs to be more than expected companyfoundingcapital devided by amount of founders\n        require(msg.value >= foundingcapitalgoal[companyId]/memberAmount[companyId], 'value is not enough');\n\n        //if member is new, create member and assign to company\n        if (memberOfCertainCompany[companyId][msg.sender] = false){\n            createMember(msg.sender, companyId);\n        }\n        //save payed amount in correct member\n        addressMember[msg.sender].amount = msg.value;\n        payedCapital[companyId] += msg.value;\n\n        //return 1 for success and missing capital\n        //uint256 missing = foundingcapitalgoal[companyId] - payedCapital[companyId];\n\n        emit Received(msg.value, msg.sender);\n        return(1);\n    }\n\n\n    function leaveCompany(uint256 companyId) external returns (uint256) {\n        //check, if user is part of the company\n        require(memberOfCertainCompany[companyId][msg.sender] = true, 'Address is not member of the company.');\n        //check, if company has more than one member\n        require(memberAddresses[companyId].length >1, 'Company just has one member. Please dissolve Company.');\n        //evtl. dissokve automatisch aufrufen\n        require(addressMember[msg.sender].amount > 0, 'No shares payed.');\n        //variable for the returnmoney\n        uint256 returnMoney = calcReturnAmount(msg.sender, companyId);\n\n        //if payed amount is smaller than part of payedcapital --> return amount payed, else return part of capital\n\n        payedCapital[companyId] = payedCapital[companyId] - returnMoney;\n        transfer(payable(msg.sender), returnMoney); //msg.sender needs to be casted to payable to receive ETH\n\n        //remove address from all mappings\n        delete addressMember[msg.sender];\n        memberAmount[companyId] -= 1;\n        memberOfCertainCompany[companyId][msg.sender] = false;\n        memberOfAnyCompany[msg.sender] = false;\n        removeFromMemberAddresses(companyId, msg.sender);\n        return(1);\n    }\n\n    function calcReturnAmount(address returnAddress, uint256 companyId) internal view returns(uint256){\n        uint256 returnMoney = 0;\n        if (addressMember[returnAddress].amount < payedCapital[companyId]/memberAmount[companyId]){\n            returnMoney =  addressMember[returnAddress].amount;\n        } else {\n            returnMoney = payedCapital[companyId]/memberAmount[companyId];\n        }\n        return returnMoney;\n    }\n\n    function removeFromMemberAddresses(uint256 companyId, address removeAddress) internal {\n        uint i = 0;\n        while (memberAddresses[companyId][i] != removeAddress) {\n            i++;\n        }\n        while (i<memberAddresses[companyId].length-1) {\n            memberAddresses[companyId][i] = memberAddresses[companyId][i+1];\n            i++;\n        }\n        //memberAddresses[companyId].length --; // not needed cause of dynamic array\n    }\n\n    //transfer function\n    function transfer(address payable to, uint256 amount) internal {\n        to.transfer(amount);\n    }\n\n\n\n    //every of the members need to run this function\n    function dissolveCopany(uint256 companyId) public {\n        require(memberOfCertainCompany[companyId][msg.sender] = true, 'Address is not member of any company.');\n        require(companyExists[names[companyId]] = true, 'company does not exist');\n        //ob msg.sender ist der letzte\n        // wenn ja, dann berweisen\n        // wenn nein, wantDissolveCompany fr member auf true\n\n        if (addressMember[msg.sender].wantDissolveCompany = false){\n            addressMember[msg.sender].wantDissolveCompany = true;\n            amountWantDissolveCompany[companyId]++;\n        }\n        if (amountWantDissolveCompany[companyId] == memberAmount[companyId]){\n            uint256 i = 0;\n            while (i < memberAmount[companyId]){ //array starts from 0\n                address returnAddress =memberAddresses[companyId][i];\n                uint256 returnAmount = calcReturnAmount(returnAddress, companyId);\n                transfer(payable(returnAddress), returnAmount);\n                i++;\n            }\n\n            // delete everything\n\n            // return erfolgreich\n        }\n        // 1 Jahr Sperre fr Namen\n        emit Dissolved(companyId, names[companyId]);\n\n    }\n\n    //returns memberAddresses\n    function getMembers(uint256 companyId) external view returns  (address[] memory) {\n        return(memberAddresses[companyId]);\n    }\n\n    function getAllCompanies() external view returns (string[] memory) {\n        return company;\n    }\n\n    function getMyCompany() external view returns (string memory) {\n        uint256 companyId = addressMember[msg.sender].companyId;\n        return names[companyId];\n    }\n    function getCompanyBalance() external view returns (uint256) {\n        uint256 companyId = addressMember[msg.sender].companyId;\n        return payedCapital[companyId];\n    }\n}",
  "sourcePath": "/Users/felixwilberg/code/found_company/src/contracts/Company.sol",
  "compiler": {
    "name": "solc",
    "version": "0.8.10+commit.fc410830.Emscripten.clang"
  },
  "schemaVersion": "3.4.3",
  "updatedAt": "2022-02-02T00:08:05.317Z",
  "devdoc": {
    "kind": "dev",
    "methods": {},
    "version": 1
  },
  "userdoc": {
    "kind": "user",
    "methods": {},
    "version": 1
  }
}