{
  "contractName": "Company",
  "abi": [
    {
      "anonymous": false,
      "inputs": [
        {
          "indexed": false,
          "internalType": "uint256",
          "name": "value",
          "type": "uint256"
        },
        {
          "indexed": false,
          "internalType": "address",
          "name": "sender",
          "type": "address"
        }
      ],
      "name": "Receive",
      "type": "event"
    },
    {
      "inputs": [
        {
          "internalType": "uint256",
          "name": "",
          "type": "uint256"
        }
      ],
      "name": "company",
      "outputs": [
        {
          "internalType": "string",
          "name": "",
          "type": "string"
        }
      ],
      "stateMutability": "view",
      "type": "function"
    },
    {
      "inputs": [
        {
          "internalType": "string",
          "name": "_name",
          "type": "string"
        },
        {
          "internalType": "uint256",
          "name": "_capital",
          "type": "uint256"
        },
        {
          "internalType": "uint256",
          "name": "_shareholders",
          "type": "uint256"
        }
      ],
      "name": "found",
      "outputs": [],
      "stateMutability": "nonpayable",
      "type": "function"
    },
    {
      "inputs": [],
      "name": "payShare",
      "outputs": [],
      "stateMutability": "payable",
      "type": "function"
    }
  ],
  "bytecode": "0x608060405234801561001057600080fd5b50610537806100206000396000f3fe6080604052600436106100345760003560e01c806399c571e714610039578063b79c800914610043578063eacebba314610063575b600080fd5b610041610099565b005b34801561004f57600080fd5b5061004161005e366004610345565b6100e7565b34801561006f57600080fd5b5061008361007e366004610409565b6101ea565b6040516100909190610452565b60405180910390f35b604080513481523360208201527f679c2c72b93b6dbe9187487c5fd3c79f94582c5bfafd6d4e32164038479a2258910160405180910390a16040805180820190915260006020820152339052565b6004836040516100f79190610485565b9081526040519081900360200190205460ff16156101545760405162461bcd60e51b8152602060048201526016602482015275436f6d70616e7920616c72656164792065786973747360501b604482015260640160405180910390fd5b6001805480820182556000919091528351610196917fb10e2d527612073b26eecdfd717e6a320cf44b4afac2b0732d9fcbe2b7fa0cf601906020860190610296565b50600180546000916101a7916104a1565b600081815260036020908152604090912086519293506101cb929091870190610296565b5060009081526002602090815260408083209390935560059052205550565b600181815481106101fa57600080fd5b906000526020600020016000915090508054610215906104c6565b80601f0160208091040260200160405190810160405280929190818152602001828054610241906104c6565b801561028e5780601f106102635761010080835404028352916020019161028e565b820191906000526020600020905b81548152906001019060200180831161027157829003601f168201915b505050505081565b8280546102a2906104c6565b90600052602060002090601f0160209004810192826102c4576000855561030a565b82601f106102dd57805160ff191683800117855561030a565b8280016001018555821561030a579182015b8281111561030a5782518255916020019190600101906102ef565b5061031692915061031a565b5090565b5b80821115610316576000815560010161031b565b634e487b7160e01b600052604160045260246000fd5b60008060006060848603121561035a57600080fd5b833567ffffffffffffffff8082111561037257600080fd5b818601915086601f83011261038657600080fd5b8135818111156103985761039861032f565b604051601f8201601f19908116603f011681019083821181831017156103c0576103c061032f565b816040528281528960208487010111156103d957600080fd5b82602086016020830137600060208483010152809750505050505060208401359150604084013590509250925092565b60006020828403121561041b57600080fd5b5035919050565b60005b8381101561043d578181015183820152602001610425565b8381111561044c576000848401525b50505050565b6020815260008251806020840152610471816040850160208701610422565b601f01601f19169190910160400192915050565b60008251610497818460208701610422565b9190910192915050565b6000828210156104c157634e487b7160e01b600052601160045260246000fd5b500390565b600181811c908216806104da57607f821691505b602082108114156104fb57634e487b7160e01b600052602260045260246000fd5b5091905056fea2646970667358221220f91ed76881573f3233ee3f1b7fb004a4926428ae051c153a30c0f97edfb6abe464736f6c634300080a0033",
  "immutableReferences": {},
  "source": "// SPDX-License-Identifier: MIT\npragma solidity 0.8.10;\n\n\ncontract Company {\n\n    struct Member{\n        address member;\n        uint256 amount;\n    }\n\n    mapping(uint256 => Member[]) internal members;\n\n    string[] public company;\n\n    mapping(uint256 => uint256) shareholders; // map amount  of shareholders to company id\n    mapping(uint256 => string) names; // map company id to name of company\n    mapping(string => bool) companyExists; //map company name to bool\n    mapping(uint256 => uint256) capital; //starting capital per companyId\n    mapping(uint256 => uint256) payedCapital; //payedCapital per company\n\n    event Receive(uint256 value, address sender);\n\n    function found(string memory _name, uint256 _capital, uint256 _shareholders) external  {\n        require(!companyExists[_name], 'Company already exists');\n        company.push(_name);\n        uint256 _id = company.length -1;\n        names[_id] = _name;\n        shareholders[_id] = _shareholders;\n        capital[_id] = _capital;\n\n    }\n\n    function payShare() payable external {\n        emit Receive(msg.value, msg.sender);\n        Member memory newMember;\n        newMember.member = msg.sender;\n        //hier fehlt noch was\n    }\n\n\n}",
  "sourcePath": "/Users/felixwilberg/code/found_company/src/contracts/Company.sol",
  "compiler": {
    "name": "solc",
    "version": "0.8.10+commit.fc410830.Emscripten.clang"
  },
  "schemaVersion": "3.4.3",
  "updatedAt": "2022-01-13T19:24:42.742Z",
  "devdoc": {
    "kind": "dev",
    "methods": {},
    "version": 1
  },
  "userdoc": {
    "kind": "user",
    "methods": {},
    "version": 1
  }
}